:100000006F501044130000001300000013000000A4
:100010001300000013000000130000001300000094
:100020001300000013000000130000001300000084
:08003000130000007300100032
:100038000000000000000000FC4A0000984B00008F
:1000480000000000D85B0000000000000000000075
:10005800DA5B0000DC5B000000000000000000002C
:10006800DE5B000000000000E05B00000000000014
:10007800E25B0000E45B0000E65B0000E85B000078
:10008800EA5B0000EC5B0000EE5B0000F05B000048
:10009800F25B0000F45B0000F65B0000F85B000018
:1000A800FA5B0000FC5B0000FE5B0000005C0000E7
:1000B800025C0000045C0000065C0000085C0000B4
:1000C800DE2600000C5C00000E5C0000105C0000E6
:1000D800125C0000145C0000165C0000185C000054
:1000E8000C4B00001C5C00001E5C0000205C000043
:1000F800225C0000245C0000265C0000285C0000F4
:100108002A5C00002C5C00002E5C0000305C0000C3
:10011800325C0000345C0000C6260000385C000039
:100128003A5C00003C5C00003E5C000000000000FF
:080138000000000000000000BF
:100140003D432A876373C3029377F700BDEFADE5A4
:10015000937606FF3D8ABA960CC34CC30CC74CC7B6
:100160004107E36BD7FE11E28280B306C3408A06E3
:100170009702000096966780A6002307B700A306A3
:10018000B7002306B700A305B7002305B700A304F3
:10019000B7002304B700A303B7002303B700A302EB
:1001A000B7002302B700A301B7002301B700A300E3
:1001B000B7002300B700828093F5F50F9396850072
:1001C000D58D93960501D58D61B79396270097023B
:1001D000000096968682E78086FA9680C1171D8F6A
:1001E0003E96E374C3F8A5B7011106CE22CC0010E9
:1001F000AA872317F4FE8357E4FE81EB83A7C18807
:1002000005472398E700814701A883A781889C437D
:10021000829783A7C188A9073E85F24062440561A1
:100220008280411106C622C4000883A7C18803C783
:100230003700B70700209387871383C7170063EA47
:10024000E70283A7C18883C7270085E783A7C18802
:1002500083D7470099EF03A7C18883A7C1880347C5
:1002600037002385E70083A78188DC438297814795
:1002700011A089473E85B24022444101828001118C
:1002800006CE22CC0010AA872317F4FE8357E4FE83
:1002900081EB83A7C18805472398E700814701A820
:1002A00083A781889C47829783A7C188B1073E8531
:1002B000F240624405618280011106CE22CC00101A
:1002C00083A74186944F83A7C18803C7570083A79C
:1002D000C18883C73700BE853A8582962326A4FE4F
:1002E00083A7C18883C7A700A9CB8327C4FE99EB46
:1002F00083A7C18883C7470091E783A7C18883C7C5
:10030000270099C389471DA88327C4FE9DE783A7BB
:100310008188DC47829703A7C18883A7C1880347E8
:100320005700A385E70003A7C18883A7C1880347B7
:1003300037002386E700814711A089473E85F240B8
:10034000624405618280797106D622D40018AA879A
:10035000231FF4FC8357E4FD81EB83A7C188094781
:100360002398E700814725AA239E018483A7C1889B
:1003700083C7070093F7F707B5E383A7C18883C74F
:100380009700A307F4FE8347F4FE93F7070291CB8F
:1003900083C7C18593E7270013F7F70F238EE18406
:1003A00001A883C7C185F59B13F7F70F238EE1845E
:1003B0008347F4FE93F7070491CB83C7C18593E786
:1003C000170013F7F70F238EE184E1A083C7C185DF
:1003D000F99B13F7F70F238EE18465A883A7C188E3
:1003E00083C7070013F7F70785476315F70093875F
:1003F000C18575A083A7C18883C7070013F7F707D6
:1004000089476316F70883A7C18883C75700230766
:10041000F4FE8347E4FEBD8BA306F4FE8307E4FEEF
:1004200063DC07028347D4FE13972700B7670040B9
:10043000938707C0BA979C43C207C18313F707038A
:10044000C1476318F70483C7C18593E7170013F703
:10045000F70F238EE18435A88347D4FE1397270036
:10046000B7670040938707C0BA979C43C207C18310
:100470003E878D677D8F8567631DF70083C7C185C4
:1004800093E7170013F7F70F238EE18419A0814734
:1004900039A083A781889C4B82979387C1853E852D
:1004A000B250225445618280797106D622D4001858
:1004B00083A7C18883C7070093F7F7072324F4FEB7
:1004C000832784FE99EF83A7C18803C7970083A77A
:1004D000C1881377F7FD1377F70FA384E7008147EF
:1004E000C5AC032784FE89476313F72E83A7C18811
:1004F00083D7270091E783A7C18883C7470099C3A3
:100500008947F9A4B7070020938787132322F4FEB5
:1005100083A7C18883C757002320F4FE832704FEE6
:1005200093F7F7F7232EF4FC8327C4FD232CF4FC68
:1005300083A7C18883C75700E207E18763D3070217
:10054000832784FD13972700B7670040938707C070
:10055000BA979C43C207C18393F707032326F4FE8F
:1005600015A0832784FD13972700B7670040938762
:1005700007C0BA979C43C207C1833E878D67F98F36
:100580002326F4FE832744FE83C707003E87832784
:10059000C4FD63FAE7008327C4FE91C783A7C1881F
:1005A00083C7A70099E3894725A4832704FE93F70F
:1005B0000708B9C3832784FD13972700B767004056
:1005C000938707C0BA979C43C207C18313F70703F9
:1005D000C1476318F71E832784FD93F7F70F3E8505
:1005E000EF105045832784FD93F7F70F9305000321
:1005F0003E85EF10B00DF1A2832784FD13972700ED
:10060000B7670040938707C0BA979C43C207C1836E
:100610003E878D677D8F85676315F71A832784FD75
:10062000F1EF832784FD13F7F70FB70700209387B7
:10063000070583C7C702C207C183BE853A85EF108D
:10064000505C832784FD13972700B767004093878A
:1006500007C0BA979C43139707014183F1779387AB
:10066000F7F8F98F9390070193D000018567B3C71E
:10067000F0009390070193D000018967B3C7F000A1
:100680009390070193D00001E17793870708B3E7C0
:10069000F00093960701C182832784FD13972700FA
:1006A000B7670040938707C0BA97368798C325A0DD
:1006B000E17793870708B3E7F00093960701C182BB
:1006C000832784FD13972700B7670040938707C0EF
:1006D000BA97368798C3832784FD13972700B76797
:1006E0000040938707C0BA979C43C207C1833E87E7
:1006F0008D677D8F8D67E31DF7FAE1A0832784FD69
:1007000093F7F70F3E85EF10902B832784FD139707
:100710002700B7670040938707C0BA979C43139799
:1007200007014183F1779387F7F8F98F93900701D9
:1007300093D000018567B3C7F0009390070193D071
:1007400000018967B3C7F0009390070193D00001BF
:10075000E17793870708B3E7F00093960701C1821A
:10076000832784FD13972700B7670040938707C04E
:10077000BA97368798C325A0E17793870708B3E730
:10078000F00093960701C182832784FD1397270009
:10079000B7670040938707C0BA97368798C3832707
:1007A00084FD13972700B7670040938707C0BA9767
:1007B0009C43C207C1833E878D677D8F8D67E31D94
:1007C000F7FA83A78188DC4B8297814711A089477C
:1007D0003E85B250225445618280011106CE22CC62
:1007E000001083A7C18883C757002324F4FE832702
:1007F00084FE93F7F7F72322F4FE832744FE232099
:10080000F4FE83A7C18883C75700E207E18763D35B
:100810000702832704FE13972700B76700409387DA
:1008200007C0BA979C43C207C18393F707032326E7
:10083000F4FE15A0832704FE13972700B767004036
:10084000938707C0BA979C43C207C1833E878D67D1
:10085000F98F2326F4FEB707002083C787133E874E
:10086000832704FE63FFE70083A7C18883D727009F
:1008700089EB8327C4FE91C783A7C18883C7A700DC
:1008800099E38947A5A2832784FE93F70708CDC77C
:10089000832704FE13972700B7670040938707C09C
:1008A000BA979C43139707014183E5779387F7FB3A
:1008B000F98F9390070193D0000193C700019390A3
:1008C000070193D00001E17793870708B3E7F000B1
:1008D00093960701C182832704FE13972700B76709
:1008E0000040938707C0BA97368798C325A0E17761
:1008F00093870708B3E7F00093960701C182832727
:1009000004FE13972700B7670040938707C0BA9784
:10091000368798C3832704FE13972700B7670040E4
:10092000938707C0BA979C43C207C18313F7070395
:10093000C147E31EF7FA75A0832704FE139727002B
:10094000B7670040938707C0BA979C431397070186
:100950004183F1779387F7F8F98F9390070193D04C
:1009600000018567B3C7F0009390070193D00001A1
:10097000E17793870708B3E7F00093960701C182F8
:10098000832704FE13972700B7670040938707C0AB
:10099000BA97368798C325A0E17793870708B3E70E
:1009A000F00093960701C182832704FE1397270066
:1009B000B7670040938707C0BA97368798C38327E5
:1009C00004FE13972700B7670040938707C0BA97C4
:1009D0009C43C207C1833E878D677D8F8567E31D7A
:1009E000F7FA83A781889C4F829781473E85F24022
:1009F000624405618280411106C622C4000883A7B3
:100A0000C18803C7970083A7C188136707021377BC
:100A1000F70FA384E70083A78188DC4F8297814783
:100A20003E85B240224441018280797122D600186D
:100A3000AA87232CB4FC231FF4FC83A7C18883D787
:100A400027012326F4FE8357E4FD85E7832784FDF1
:100A500083D647008327C4FE13970701418383A7EA
:100A6000C1883387E640420741832398E7008147E6
:100A700039A0832784FD98438327C4FEBA973E8517
:100A8000325445618280011106CE22CC001083A72A
:100A9000C188C1072324F4FE832784FE83D707007F
:100AA0002322F4FE832784FE9C47D9CF832744FE6C
:100AB000C1CF832784FE83D747002326F4FE032774
:100AC000C4FE832744FE63F6E700832744FE232603
:100AD000F4FE832784FE98478327C4FEC207C183A0
:100AE0003E8502972320A4FE832784FE03D70700B8
:100AF0008327C4FEC207C183B307F74013970701DA
:100B00004183832784FE2390E700832784FE03D755
:100B100027008327C4FEC207C183BA971397070132
:100B20004183832784FE2391E7000145EF105005A0
:100B3000AA873E878327C4FEC207C1833E86BA8543
:100B4000032504FEEF102027832784FE83D70700A8
:100B500081CF0D672399E18881450145EF1010068B
:100B600013070003239AE188832784FE03D7070035
:100B7000832784FE83D747006368F70083A7C18873
:100B80000D472384E70089A8832784FE83D70700C5
:100B900099C783A7C18815472384E70035A8832711
:100BA00084FE83D707008DEB83A7C1881947238470
:100BB000E700B7670040938707C59C43C207C1831E
:100BC0003E87B73700208907BA97860723A007001A
:100BD00013070003239AE1880100F2406244056193
:100BE0008280797106D622D4001883A7C188C107F4
:100BF0002322F4FE832744FE83D707002320F4FE3C
:100C000083A7C18883C787002326F4FE832704FEB9
:100C1000B9EB0327C4FE91476317F70403A70183C9
:100C20008547631BF702B7670040938707C59C435E
:100C3000C207C1833E87B73700208907BA97860766
:100C400023A0070013070003239AE1889147232676
:100C5000F4FE23A80182E9A89D472326F4FE41471C
:100C6000239AE188F1A0832744FE83D747002324F9
:100C7000F4FE032704FE832784FE63E4E700914724
:100C800011A089472326F4FE032784FE832704FE50
:100C900063F6E700832704FE2324F4FE832744FE43
:100CA0009847832784FEC207C1833E850297232E7F
:100CB000A4FC0145EF102069AA873E87832784FEA4
:100CC000C207C1833E86BA850325C4FDEF10C00369
:100CD000832784FEC207C183BE850145EF10006EE5
:100CE000832744FE03D70700832784FEC207C183FE
:100CF000B307F740139707014183832744FE2390EE
:100D0000E700832744FE03D72700832784FEC2071A
:100D1000C183BA97139707014183832744FE239128
:100D2000E70013070003239AE1880D672399E18800
:100D300083A7C1880327C4FE1377F70F2384E70036
:100D40000100B250225445618280011106CE22CCAE
:100D5000001089472326F4FE83A7C18883C71700A4
:100D60002322F4FE83A7C18883C7070093F7F70700
:100D70006399070C032744FEA5476317F700EFF0BC
:100D80004FCA2326A4FE0DA2032744FE95476310F5
:100D9000F70483A7C18883C73700E207E18763C1EF
:100DA000070283A7C18883C7270099EB83A7C1885F
:100DB00083D7470091E783A7C18883C7A70089C766
:100DC000A1472324F4FEA9A2232604FEF1A80327A9
:100DD00044FE8D476316F70283A7C18803C7370017
:100DE0008547631BF70083A7C18883D7470089E73E
:100DF00019312326A4FE4DA889472326F4FE6DA0B1
:100E0000032744FE85476311F70A83A7C18803C7F8
:100E1000370085476313F70283A7C18883D747004C
:100E200089EF83A7C18883C7970093F7070291C70B
:100E3000EFF08FE72326A4FE85A889472326F4FE3A
:100E4000A5A083A7C18883C7070013F7F7078547C5
:100E5000631CF700032744FEAD476317F704EFF068
:100E6000AFC52326A4FE89A083A7C18883C7070036
:100E700013F7F70789476316F702032744FE8547F0
:100E80006317F700EFF04FE22326A4FE31A80327F3
:100E900044FE8D47631AF700EFF03F942326A4FE2B
:100EA00021A089472326F4FE8327C4FE8DC783A78C
:100EB0004186D84B832744FE93F7F70F3E85029770
:100EC0002326A4FE0327C4FE8D476316F700A5471B
:100ED0002324F4FE35A88327C4FE89C7A147232411
:100EE000F4FE3DA099472324F4FEB76700409387A2
:100EF00007C59C43C207C1833E87B73700208907D7
:100F0000BA97860723A0070013070003239AE188F6
:100F100083A7C188032784FE1377F70F2384E70094
:100F20000100F240624405618280397106DE22DCF4
:100F3000800083A7C18883C717002320F4FE2326DF
:100F400004FE232E04FC032704FE99476311F706D1
:100F500083A7C18883C7070093F7F7076399072220
:100F600083A7C18883C72700A30DF4FC0347B4FD02
:100F700085476318F70083A74186DC4F2326F4FEDC
:100F800039A40347B4FD89476318F70083A7418656
:100F90009C532326F4FEE5AA0347B4FD8D4763184E
:100FA000F71E83A74186DC532326F4FECDA28327B8
:100FB00004FE6393071483A7C18883D72700639D2A
:100FC000071283A7C18803D7670089476316F71202
:100FD00083A7C18883C747006390071283A7C1888E
:100FE00083C7070093F7F70789EF83A7C18883D7E3
:100FF000470081EBB7070000938767342326F4FE90
:1010000071A283A7C18883C7070013F7F707854735
:10101000631CF70283A74186984F83A7C18883C7C3
:10102000570081453E850297AA876391071683A7DB
:10103000C18883C7A700638B0714B7070000938795
:1010400067342326F4FE99A283A7C18883C70700CB
:1010500013F7F7078947631BF71283A7C18883C774
:101060005700BD8B232AF4FC83A7C18883C7570090
:1010700093F707072328F4FC83A7C18883C7570089
:10108000E207E18763D30702832744FD1397270014
:10109000B7670040938707C0BA979C43C207C183D4
:1010A00093F707032322F4FE15A0832744FD13972B
:1010B0002700B7670040938707C0BA979C43C207D1
:1010C000C1833E878D67F98F2322F4FEB707002086
:1010D00083C787133E87832744FD63F9E70A832785
:1010E00004FDCDE7832744FED5C3B70700009387EF
:1010F00067342326F4FE59A8032704FEA147631092
:10110000F70283A7C18883C7070093F7F707C1E3F6
:10111000B70700009387871E2326F4FE8DA80327B8
:1011200004FEA9476315F70683A7C18883C7070094
:1011300013F7F7078547631CF70483A7C18883C7A4
:10114000A700B1C783A7C18883D72700A9E383A7D6
:10115000C18883C7470085EF83A7C18803D767008D
:1011600085476316F70283A74186984F83A7C188F6
:1011700083C7570081453E850297AA8789EBB70749
:1011800000009387E7272326F4FE11A001008327A0
:10119000C4FE8DC783A7C1880327C4FD42074183CE
:1011A0002399E70083A7C1880327C4FE98CF83272C
:1011B000C4FE01458297232404FE3DA083A74186F7
:1011C000984B83A7C18883C717003E8502972324C5
:1011D000A4FE032784FE8D476318F70083A7C18808
:1011E00025472384E700EDA883A7C18803D707011B
:1011F000C167FD176318F70083A7C18825472384BB
:10120000E700F9A8032784FE89476307F70083A74F
:10121000C18883D7070199E783A7C1882147238421
:10122000E7007DA883A7C18883C70700E207E1879D
:1012300063DF070883A7C18883D767002326F4FCF0
:1012400083A7C18883D707013E878327C4FC63FB3C
:10125000E7000327C4FC83A7C18842074183239882
:10126000E70089A883A7C18803D7070183A7C1889E
:1012700083D767006370F70483A7C18803D707018A
:1012800083A7418683C7C702C207C1836375F7007E
:1012900023A8018205A083A7C18883D707013E87C1
:1012A00083A7418683C7C702B367F70281E7054773
:1012B00023A8E18283A7418603C7C70283A7C18809
:1012C00042074183239AE700EFF0BF9111A883A75B
:1012D000C1880D472384E7000D672399E188010049
:1012E000F250625421618280011106CE22CC26CABE
:1012F000001085472317F4FEB7670040938707C5A2
:101300009C43C207C1833E87B73700209107BA9735
:1013100086079C43C207C18386073E87B7670040A4
:10132000BA972324F4FE83A7C18803C78700A54783
:10133000630AF70A832784FE138717002324E4FE39
:1013400003A7C18883C707002300F700832784FE13
:10135000138717002324E4FE03A7C18883C707006F
:10136000A300F700032784FE8357E4FE8607BA979D
:101370002324F4FE832784FE138727002324E4FE1E
:1013800003D7070083A4C1883A85EF100021AA87FC
:101390002391F400032784FE8357E4FE8607BA975F
:1013A0002324F4FE832784FE138727002324E4FEEE
:1013B00003D7070083A4C1883A85EF10001EAA87CF
:1013C0002392F400032784FE8357E4FE8607BA972E
:1013D0002324F4FE032784FE83A7C1880357070054
:1013E0002393E70083A7C18805472384E70083A7E9
:1013F000C18883D7670081E7EFF03F9511A03536AC
:10140000B122AA873E85F2406244D24405618280BF
:10141000011106CE22CC001083A7C18883C78700A4
:101420002326F4FE0327C4FE89476307F70003273A
:10143000C4FE9147631BF700EFF0AFFA83A7C188A2
:1014400083C787002326F4FE89A80327C4FE994793
:101450006312F70483A7C18803C717009547631376
:10146000F70283A7C18883C7070093F7F70799EBB3
:1014700083A7C18883C737003E85252283A781883B
:101480009C53829783A741869C478297A147232636
:10149000F4FE21A0A1472326F4FE83A7C1880327D9
:1014A000C4FE1377F70F2384E7004D20AA873E85FB
:1014B000F240624405618280011106CE22CC001008
:1014C00083A7C18883C787002326F4FE0327C4FEB1
:1014D00089476307F7000327C4FE91476316F700A7
:1014E000A1472326F4FEA1A00327C4FE8D4763076E
:1014F000F7000327C4FE9547631BF700EFF0AFD852
:1015000083A7C18883C787002326F4FE0DA0032785
:10151000C4FE9D47631AF70083A74186DC47829784
:10152000A1472326F4FE21A0A1472326F4FE83A78A
:10153000C1880327C4FE1377F70F2384E7003920FF
:10154000AA873E85F240624405618280411106C649
:1015500022C40008B70700209387070583C7C70286
:10156000C207C183BE850145EF00B06983A7C1886A
:1015700003C78700A1476318F70005672399E1882F
:101580004147239AE18883A7C18883C78700DD1775
:1015900093B7170093F7F70F3E85B24022444101FD
:1015A0008280797122D60018AA87A30FF4FCB707AE
:1015B000002083C787132324F4FE232604FE85A07E
:1015C0008327C4FE93F7F70F13972700B7670040F0
:1015D000938707C0BA979C43C207C1833E8785673C
:1015E0009387F7F07D8FA16793870708D98F03272B
:1015F000C4FE1377F70FB3E6E7008327C4FE93F723
:10160000F70F13972700B7670040938707C0BA9773
:10161000368798C38327C4FE85072326F4FE032755
:10162000C4FE832784FEE36DF7F88347F4FD93E758
:1016300007F813F7F70FB76700409387C7C498C33D
:101640000100325445618280411122C60008010028
:10165000324441018280411106C622C4000813872A
:10166000C18623A6E18883A7C18809472384E700B0
:10167000370700201307070523A2E186370700205C
:101680001307070823A4E18883A741869C43829718
:101690000100B240224441018280011106CE22CCD9
:1016A00026CA4AC80010231704FE25AD83D7A18996
:1016B000C207C18393F7F70FBD8B13F7F70F23848E
:1016C000E18683C7818663930754B7670040938799
:1016D00007C09C431397070141832399E18883D76F
:1016E0002189C207C18393F7070313970701418339
:1016F000239AE18883D721891397070141838D6756
:10170000F98F1397070141832399E188B767004058
:10171000938707C09C43C207C1833E87A567938711
:10172000F7FB3379F700B7670040938707C09C4306
:10173000C207C1833E87B1679387F7F8B374F70098
:101740008967BD8C1349090293170901C183B3E668
:10175000F400B7670040938707C0216713070708A5
:10176000558F98C305A0131709014183E17793872B
:101770000708D98F139707014183B7670040938704
:1017800007C098C3B7670040938707C09C43C20750
:10179000C18313F7070393070002E316F7FC05A0C4
:1017A000139704014183E17793870708D98F139733
:1017B00007014183B7670040938707C098C3B767A5
:1017C0000040938707C09C43C207C1833E878D6753
:1017D0007D8F8967E316F7FC83D7A189C207C18390
:1017E000C18B63990714B7670040938707C09C4378
:1017F000C207C183BE86B7670040938707C02567CD
:101800001307F7F0758F98C32131B76700409387AE
:1018100007C09C43C207C1833E87A5679387F7FB38
:101820003379F700B7670040938707C09C43C2072E
:10183000C1833E87B1679387F7F8B374F70083D706
:1018400021891397070141838567F98FC207C183F7
:1018500099C38567BD8C83D721891397070141837D
:101860008967F98FC207C18399C38967BD8C83D704
:101870004189C207C183C18BC207C18399C3134980
:10188000090183D74189C207C18393F70702C207C1
:10189000C18399C31349090293170901C183B3E6B0
:1018A000F400B7670040938707C021671307070854
:1018B000558F98C305A0131709014183E1779387DA
:1018C0000708D98F139707014183B76700409387B3
:1018D00007C098C3B7670040938707C09C43C207FF
:1018E000C18393F7070303D7418942074183E394F8
:1018F000E7FC05A0139704014183E177938707086C
:10190000D98F139707014183B7670040938707C0BA
:1019100098C3B7670040938707C09C43C207C18341
:101920003E878D67F98F03D7218942074183E3936F
:10193000E7FCE9A6B7670040938707C09C43C2074E
:10194000C1832317F4FE8357E4FEC207C1833E8799
:10195000856793870780F98F638A0714B76700400C
:10196000938707C09C43C207C183BE86B767004008
:10197000938707C005671307F7F8758F98C3EFF0D3
:10198000BF96B7670040938707C09C43C207C183D7
:101990003E87A5679387F7FB3379F700B767004069
:1019A000938707C09C43C207C1833E87B167938773
:1019B000F7F8B374F70083D72189139707014183A0
:1019C0008567F98FC207C18399C38567BD8C83D7AB
:1019D00021891397070141838967F98FC207C18362
:1019E00099C38967BD8C83D74189C207C183C18BE5
:1019F000C207C18399C31349090183D74189C2072B
:101A0000C18393F70702C207C18399C3134909022F
:101A100093170901C183B3E6F400B76700409387C9
:101A200007C0216713070708558F98C305A0131730
:101A300009014183E17793870708D98F139707013D
:101A40004183B7670040938707C098C3B7670040DA
:101A5000938707C09C43C207C18393F7070303D74B
:101A6000418942074183E394E7FC05A013970401F1
:101A70004183E17793870708D98F13970701418343
:101A8000B7670040938707C098C3B7670040938744
:101A900007C09C43C207C1833E878D67F98F03D778
:101AA000218942074183E393E7FC89AC8357E4FE35
:101AB000C207C183C207C18763D50722B767004049
:101AC000938707C09C43C207C183BE86B7670040A7
:101AD000938707C005671307F7F8758F98C3EFF072
:101AE000BF9DB7670040938707C09C43C207C1836F
:101AF0003E87A5679387F7FB3379F700B767004008
:101B0000938707C09C43C207C1833E87B167938711
:101B1000F7F8B374F70083D721891397070141833E
:101B20008567F98FC207C18399C38567BD8C83D749
:101B300021891397070141838967F98FC207C18300
:101B400099C38967BD8C83D74189C207C183C18B83
:101B5000C207C18399C31349090183D74189C207C9
:101B6000C18393F70702C207C18399C313490902CE
:101B700093170901C183B3E6F400B7670040938768
:101B800007C0216713070708558F98C305A01317CF
:101B900009014183E17793870708D98F13970701DC
:101BA0004183B7670040938707C098C3B767004079
:101BB000938707C09C43C207C18393F7070303D7EA
:101BC000418942074183E394E7FC05A01397040190
:101BD0004183E17793870708D98F139707014183E2
:101BE000B7670040938707C098C3B76700409387E3
:101BF00007C09C43C207C1833E878D67F98F03D717
:101C0000218942074183E393E7FCCDA883C78186FE
:101C100013972700B7670040938707C0BA979C4384
:101C2000C207C1832317F4FE8357E4FEC207C183B2
:101C3000C207C18763D9070483C78186139727002A
:101C4000B7670040938707C0BA979C43C207C18318
:101C5000BE8683C7818613972700B76700409387A6
:101C600007C0BA9705671307F7F8758F98C383C73E
:101C700081861387F7FFB70700200A07938747037A
:101C8000BA979C4382978357E4FEC207C18393F7B8
:101C90000708A1CB83C7818613972700B767004049
:101CA000938707C0BA979C43C207C183BE8683C788
:101CB000818613972700B7670040938707C0BA97BC
:101CC00025671307F7F0758F98C383C7818613873D
:101CD000F7FFB70700200A0793878701BA979C434D
:101CE0008297B7670040938747C49C43C207C1836C
:101CF000239DF188C207C187E3CA079AF240624474
:101D0000D244424905618280397122DE8000232657
:101D1000A4FCAE8732872315F4FCBA872314F4FCA5
:101D2000835784FC850785872322F4FE0357A4FC90
:101D3000B7370020BA9786072324F4FE832744FE92
:101D40002326F4FE95A08327C4FC83C70700232025
:101D5000F4FE8327C4FC85072326F4FC8327C4FCF8
:101D600083C70700A2073E87832704FED98F232E4F
:101D7000F4FC832784FE138727002324E4FE032733
:101D8000C4FD420741832390E700832784FE89072F
:101D90002324F4FE8327C4FC85072326F4FC832731
:101DA000C4FEFD172326F4FE8327C4FEC9FF0100ED
:101DB000725421618280797122D60018232EA4FCEE
:101DC000AE873287231DF4FCBA87231CF4FC8357AB
:101DD00084FD850785872322F4FE0357A4FDB737CA
:101DE0000020BA9786072324F4FE832744FE232687
:101DF000F4FE2DA8832784FE138747002324E4FEE6
:101E000094438327C4FD13871700232EE4FC139704
:101E1000060141832390E7008327C4FD8507232E15
:101E2000F4FC8327C4FEFD172326F4FE8327C4FE9B
:101E3000F1F30100325445618280011122CE00107D
:101E4000AA872317F4FE8356E4FEB7670040938702
:101E500007C541676117758F98C30100724405611A
:101E60008280011122CE0010AA872E87A307F4FEDC
:101E7000BA872316F4FE8347F4FE13972700B7674B
:101E80000040938707C0BA979C4313970701418787
:101E9000E5779387F798F98F1397070141878317A1
:101EA000C4FED98FC207C18793960701C1828347B9
:101EB000F4FE13972700B7670040938707C0BA97CF
:101EC000368798C30100724405618280011122CED9
:101ED00026CC0010AA872E87A307F4FEBA87231604
:101EE000F4FE8347F4FE13972700B76700409387FB
:101EF00007C0BA979C43139707014183E5779387FF
:101F0000F7FBF98F93940701C1808357C4FEC18BFF
:101F1000C207C18391C793C7040193940701C1808D
:101F20008357C4FE93F70702C207C18391C793C7C3
:101F3000040293940701C180E17793870708C58F56
:101F400093960701C1828347F4FE13972700B76772
:101F50000040938707C0BA97368798C31DA0E177E2
:101F600093870708C58F93960701C1828347F4FEC4
:101F700013972700B7670040938707C0BA97368743
:101F800098C38347F4FE13972700B76700409387F1
:101F900007C0BA979C43C207C18313F7070383574F
:101FA000C4FEE31EF7FA01007244E2440561828038
:101FB000011122CE26CC0010AA872E87A307F4FE9B
:101FC000BA872316F4FE8347F4FE13972700B767FA
:101FD0000040938707C0BA979C431397070141833A
:101FE000F1779387F7F8F98F93940701C18003572E
:101FF000C4FE8567F98FC207C18391C78567A58F26
:1020000093940701C1800357C4FE8967F98FC20703
:10201000C18391C78967A58F93940701C180E17738
:1020200093870708C58F93960701C1828347F4FE03
:1020300013972700B7670040938707C0BA97368782
:1020400098C31DA0E17793870708C58F9396070172
:10205000C1828347F4FE13972700B7670040938738
:1020600007C0BA97368798C38347F4FE13972700B3
:10207000B7670040938707C0BA979C43C207C183E4
:102080003E878D677D8F8357C4FEE31DF7FA0100FD
:102090007244E24405618280011122CE26CC0010F8
:1020A000AA87A307F4FE8347F4FE13972700B767B8
:1020B0000040938707C0BA979C4313970701418359
:1020C000F1779387F7F8F98F93940701C1808567BB
:1020D000A58F93940701C1808967A58F9394070109
:1020E000C180E17793870708C58F93960701C18266
:1020F0008347F4FE13972700B7670040938707C014
:10210000BA97368798C31DA0E17793870708C58FD4
:1021100093960701C1828347F4FE13972700B767A0
:102120000040938707C0BA97368798C38347F4FE69
:1021300013972700B7670040938707C0BA979C435F
:10214000C207C1833E878D677D8F8D67E31EF7FAD7
:1021500001007244E24405618280011122CE001028
:10216000AA87A307F4FE8347F4FE13972700B767F7
:102170000040938707C0BA979C4313970701418794
:1021800085679387F7E0F98F139707014187E17718
:1021900093870708D98FC207C18793960701C18229
:1021A0008347F4FE13972700B7670040938707C063
:1021B000BA97368798C30100724405618280011185
:1021C00022CE0010AA87A307F4FE8347F4FE1397DC
:1021D0002700B7670040938707C0BA979C43C207A0
:1021E000C1833E879167F98FB1C38347F4FE13978C
:1021F0002700B7670040938707C0BA979C43C20780
:10220000C1833E8785679387F7F07D8FB16793879A
:102210000708B366F7008347F4FE13972700B767F4
:102220000040938707C0BA97368798C3010072446D
:1022300005618280011122CE0010AA87A307F4FE57
:102240008347F4FE13972700B7670040938707C0C2
:10225000BA979C43C207C18393F70704B1C383476E
:10226000F4FE13972700B7670040938707C0BA971B
:102270009C43C207C1833E8785679387F7F07D8FB4
:10228000A1679387070CB366F7008347F4FE1397A3
:102290002700B7670040938707C0BA97368798C36F
:1022A0000100724405618280011122CE0010AA87CC
:1022B0002E87A307F4FEBA872316F4FE8357C4FEC5
:1022C0008583C207C18393961700B7670040938741
:1022D00007C59C43C207C1833E878347F4FE8E0730
:1022E0003E97B7370020BA978607368798C3010014
:1022F000724405618280011122CE0010AA872E87C8
:10230000A307F4FEBA872316F4FE8357C4FE858321
:10231000C207C18393961700B7670040938707C52C
:102320009C43C207C1833E878347F4FE8E073E97D6
:10233000B73700209107BA978607368798C3010000
:10234000724405618280011122CE0010AA87A30782
:10235000F4FEB7670040938707C59C43C207C1835B
:102360003E878347F4FE8E073E97B7370020BA9723
:1023700086079C43C207C1833E8572440561828003
:10238000011122CE0010AA87A307F4FEB767004010
:10239000938707C59C43C207C1833E878347F4FEEA
:1023A0008E073E97B73700209107BA9786079C4360
:1023B000C207C1833E85724405618280011122CE2D
:1023C0000010AA872E87A307F4FEBA872316F4FE0F
:1023D000B7670040938707C59C43C207C1833E8708
:1023E0008347F4FE8E073E97B73700208907BA97D8
:1023F00086073E878357C4FE1CC3010072440561F3
:102400008280797122D60018AA872E87A30FF4FC48
:10241000BA87231EF4FCB7670040938707C59C4327
:10242000C207C1833E878347F4FD8E073E97B737C7
:1024300000209907BA9786072324F4FE0357C4FDAA
:102440009307E00363FBE7028357C4FD95832317DB
:10245000F4FE8357C4FDFD8B91E78357E4FEFD171F
:102460002317F4FE8357E4FE1397A700A167D98FC3
:102470003E87832784FE98C335A08357C4FD858398
:102480002317F4FE8357C4FD858B91C78357E4FE61
:1024900085072317F4FE8357E4FEAA073E878327A8
:1024A00084FE98C38347F4FDDDE3B70700209387DC
:1024B000070503C7C7029307E00363FAE704B707FA
:1024C00000209387070583C7C702958393F7F70F0B
:1024D0002316F4FEB70700209387070583C7C702BA
:1024E000FD8B91E78357C4FEFD172316F4FE835737
:1024F000C4FEAA07139707014187E177D98FC20766
:10250000C187139707014183239CE18889A0B707FE
:1025100000209387070583C7C702858393F7F70FCA
:102520002316F4FEB70700209387070583C7C70269
:10253000858B91C78357C4FE85072316F4FE835706
:10254000C4FEAA07139707014183239CE188010079
:10255000325445618280011122CE0010AA87A30760
:10256000F4FEB7670040938707C59C43C207C18349
:102570003E878347F4FE8E073E97B73700209907C2
:10258000BA9786079C43C207C18393F7F73FC207F8
:10259000C1833E85724405618280797122D600181C
:1025A000AA87231FF4FC8357E4FDA307F4FE835797
:1025B000E4FDA183C207C1831397070141878347C5
:1025C000F4FEA207C207C187D98FC207C1872316AD
:1025D000F4FE8357C4FE3E8532544561828041112A
:1025E00022C60008B7670040938747C423A00700AE
:1025F0007177130707F02398E18803D70189B7673C
:102600000040938707C498C381473E853244410107
:102610008280011106CE22CC0010AA872324B4FEAA
:102620002322C4FEA307F4FE9D671385C71EEF3067
:1026300040208347F4FE3E85EF30C075832784FE3B
:10264000C183C207C1833E85EF308078832784FE33
:10265000C207C1833E85EF30A077832744FEC18344
:10266000C207C1833E85EF30A076832744FEC207B0
:10267000C1833E85EF30C0758347F4FE93F7F707BB
:1026800093F7F70F3E85C131AA873E87832744FE23
:10269000C207C1833E86BA85032584FEEFF0CFE6EC
:1026A0008347F4FE93F7F70793F7F70F032744FEEA
:1026B00042074183BA853E85113381473E85F2400A
:1026C000624405618280411122C60008370504007A
:1026D000EF10707501003244410173002030411148
:1026E00022C600080D23010032444101730020304E
:1026F000411106C622C4000803A70182B747950806
:10270000938707406316F7000945EF20807705A8F7
:1027100003A70182B7E7B805938707806316F70020
:102720000545EF20007621A803A70182B777DC02D8
:10273000938707C06315F7000145EF208074854536
:1027400037058000EF2030250100B24022444101CE
:102750008280411106C622C400089D671385471F69
:10276000EF30B0160D4723A0E1840100B2402244AF
:1027700041018280011106CE22CC00109387C186D0
:102780002326F4FE9D6713850721EF30101483275D
:10279000C4FE83C7A70089C7154723A0E18421A0F1
:1027A000054723A0E1840100F24062440561828074
:1027B000797106D622D4001837050400EF10B066F0
:1027C000B7070400232CF4FC232E04FCC14723206C
:1027D000F4FE85472322F4FE930784FD3E85EF1027
:1027E000904D930740022304F4FE8547A304F4FEB2
:1027F000230504FE85472326F4FE930784FE3E85C9
:10280000EF2080449307A0032304F4FEA30404FEF6
:10281000930784FE3E85EF2020430100B2502254EE
:1028200045618280011106CE22CC00102326A4FE31
:102830002324B4FE85451145EF2090118327C4FE63
:10284000ADCBB7670040938707C49C43C207C183E1
:102850003E87B7670040938707C4759B98C3B71737
:10286000014093870780D443B717014093870780BF
:102870003717F0FF7D17758FD8C3B71701409387BF
:102880000780D447B71701409387078079771307EC
:10289000F77F758FD8C7B717014093870780D44358
:1028A000B71701409387078037470400558FD8C377
:1028B0009DA8B7670040938707C49C43C207C183A4
:1028C00093E72700139707014183B7670040938779
:1028D00007C498C3B717014093870780D443B7173D
:1028E0000140938707803717F0FF7D17758FD8C396
:1028F000B717014093870780D447B71701409387E4
:10290000078079771307F77F758FD8C7B71701400E
:1029100093870780D443B7170140938707803737E1
:102920000300558FD8C3832784FE91CFB747024059
:10293000938707809843B7470240938707801367C0
:10294000270098C321A8B747024093870780984380
:10295000B747024093870780759B98C30100F240F8
:10296000624405618280411122C6000801003244A0
:1029700041018280011106CE22CC26CA00100945F1
:10298000EFF07FBDAA872326F4FE1387810C03474F
:1029900087001377F70F9387810C83C7970093F70E
:1029A000F70FA207D98FC207C183139767009387D8
:1029B0000111B304F7000945EFF09F9CAA873E87F9
:1029C0008327C4FEC207C1833E86BA852685EFF001
:1029D0008FBE1387810C034787001377F70F938708
:1029E000810C83C7970093F7F70FA207D98FC2070F
:1029F000C183BE868327C4FE1397070141838606E1
:102A00009387810CB6979375F70F83C6E700818A89
:102A10003686AE86D18E2387D70021831316070111
:102A2000418203C7F700018BBA863287558FA3878F
:102A3000E7001387810C034787001377F70F93870D
:102A4000810C83C7970093F7F70FA207D98FC207AE
:102A5000C18385071397070141839387810C937581
:102A6000F70F83C68700818A3686AE86D18E23848F
:102A7000D700218313160701418203C79700018BFA
:102A8000BA863287558FA384E7001387810C0347EA
:102A900087001377F70F9387810C83C7970093F70D
:102AA000F70FA207D98F139707014183BD4763FE34
:102AB000E7009387810C03C78700018B2384E7001D
:102AC00003C79700018BA384E7001387810C03479A
:102AD000C7001377F70F9387810C83C7D70093F74D
:102AE000F70FA207D98FC207C18385071397070184
:102AF00041839387810C9375F70F83C6C700818A42
:102B00003686AE86D18E2386D70021831316070121
:102B1000418203C7D700018BBA863287558FA386BF
:102B2000E7001387810C0347C7001377F70F9387DC
:102B3000810C83C7D70093F7F70FA207D98F13979C
:102B400007014183B54763F8E7009387810C054788
:102B5000A38CE70221A00945EFF00FD40100F24059
:102B60006244D24405618280411122C60008238B51
:102B700001889387810C238A0702010032444101B6
:102B80008280011106CE22CC0010AA872324B4FE35
:102B90003287A307F4FEBA872316F4FE0347F4FE38
:102BA0008D47631CF70483C741833E868945B71769
:102BB0000140138507C0EF10D04F83C7418393C7EF
:102BC000F7FF13F7F70F238AE18283C7618999C35F
:102BD00085472DA08357C4FE3E86832584FE1305BA
:102BE0003008EFF01FA30547238BE188930500030E
:102BF0000D45EFF0AFAD814711A085473E85F2400E
:102C0000624405618280397106DE22DC8000232661
:102C100004FEB7670040938707C59C43C207C18382
:102C20003E87B73700209907BA9786079843C16750
:102C3000938707C0F98F03D781896382E704B76759
:102C40000040938707C5944393970601C1833E874D
:102C5000B73700209907BA978607984383D78189A9
:102C60003E86C167938707C0F18FC206C182368650
:102C7000B73600209906B2968606D98F9CC2B767F0
:102C80000040938747C49C43139707014183239DCA
:102C9000E18883D7A189C207C18393F7072003D7AF
:102CA0000189F98F95C3B7670040938747C441678F
:102CB0001307F7DF98C383C7518393F7F70F85078F
:102CC00013F7F70FA38AE18283D7A189C207C183D3
:102CD0003E87A167F98F03D70189F98F99C3EFE088
:102CE000DF9B83D7A189C207C18393F7074003D72E
:102CF0000189F98F99CFB7670040938747C441672F
:102D00001307F7BF98C3B707002093870705DC4375
:102D1000829783D7A189C207C1833E878967F98FCC
:102D200003D70189F98F81CBB7670040938747C4E8
:102D300039677D1798C383D7A189C207C1833E87AE
:102D40008567F98F03D70189F98F99CBB767004061
:102D5000938747C43D677D1798C30145EF00F02373
:102D600083D7A189C207C1833E8785679387078080
:102D7000F98F03D70189F98F95C383A7418181C753
:102D8000EF00D00621A00945EF003021B7670040D1
:102D9000938747C43D671307F77F98C383D7A189FB
:102DA000C207C18393F7071003D70189F98F6382A4
:102DB0000716B7670040938747C441671307F7EFCB
:102DC00098C3B7670040938787C49C43C207C187F5
:102DD00063DC071283A781831387170023ACE1828A
:102DE00003A781838D4763F3E712B767004093879A
:102DF00007C49C43C207C183A18B63990710B767BF
:102E00000040938707C49C43C207C1833E8723AE1B
:102E1000E182232604FE1DA88327C4FE1397270002
:102E2000B7670040938707C0BA979C43C207C18326
:102E30003E878327C4FE8A07930604FFB69723AE16
:102E4000E7FC8327C4FE85072326F4FE0327C4FE80
:102E50009D47E3F3E7FC83A7C18313E7170023AE85
:102E6000E18283A7C183139707014183B7670040BD
:102E7000938707C498C383A7C18313F7E7FF23AEE3
:102E8000E18283A7C183139707014183B76700409D
:102E9000938707C498C30100B7670040938747C46E
:102EA0009C43C207C18393F70740FDD7B767004033
:102EB000938747C441671307F7BF98C3232604FECF
:102EC00025A88327C4FE8A07130704FFBA9783A7A0
:102ED000C7FD93960701C1828327C4FE139727007D
:102EE000B7670040938707C0BA97368798C3832790
:102EF000C4FE85072326F4FE0327C4FE9D47E3F2A4
:102F0000E7FC23AC018219A023AC01821D45EF0030
:102F1000D0080100F250625421618280011122CE5A
:102F200000109387C1862326F4FE8327C4FE83C73F
:102F3000A70081C7154723A0E18401007244056101
:102F40008280411122C60008114723A0E1840100BC
:102F5000324441018280411122C6000801003244FE
:102F600041018280411122C6000801003244410122
:102F70008280011106CE22CC001083A7C18883C7AE
:102F800017002326F4FE83A7C18883C7070013F721
:102F9000F70793071002631AF7000327C4FE93078D
:102FA00000026314F700EF0050440100F240624455
:102FB00005618280411122C60008010032444101AE
:102FC0008280011106CE22CC001083A7C188238500
:102FD0000700C123A30704FE89A08347F4FE1397CB
:102FE0002700B7670040938707C0BA979C43C20782
:102FF000C183BE868347F4FE13972700B76700405E
:10300000938707C0BA9705671307F7F0758F98C3C2
:103010008347F4FE8507A307F4FE0347F4FE9D47AC
:10302000E3FDE7FAB7670040938747C41307F00F43
:1030300098C3EFF0CFDA23A0018481450145EFF07A
:103040006FFE5145EF20D00985450545EFF08FFD16
:103050000100F240624405618280411106C622C42B
:10306000000883A7C1882385070083A7C1881D673F
:103070001307472803477700A384E70083A7C18885
:10308000A38507000145EFE05FDB930500200145C4
:10309000EFE03FDDC1450145EFE05FE3930500044C
:1030A0000145EFF04FA5930500080145EFF0CF9FD4
:1030B0000145EFF08F8AB70700209387070583C784
:1030C000C702C207C183BE850145EFF08FB301453A
:1030D000EFE09FFCB7670040938707C09C43C2079F
:1030E000C1833E879167F98F95C7B7670040938783
:1030F00007C09C43C207C1833E8785679387F7F06B
:103100007D8FB167938707085D8FB767004093870E
:1031100007C098C3B7670040938707C09C43C207A6
:10312000C18393F7070495C7B7670040938707C02B
:103130009C43C207C1833E8785679387F7F07D8FE5
:10314000A1679387070C5D8FB7670040938707C01F
:1031500098C3930500600545EFE0BFD093050002DA
:103160000545EFE0BFD69305000C0545EFF0CF9382
:1031700081450545EFE0DFE3B7670040938747C02F
:103180009C43C207C18393F7070495C7B767004004
:10319000938747C09C43C207C1833E878567938757
:1031A000F7F07D8FA1679387070C5D8FB7670040AD
:1031B000938747C098C3B7670040938747C09C4335
:1031C000C207C1833E879167F98F95C7B7670040F3
:1031D000938747C09C43C207C1833E878567938717
:1031E000F7F07D8FB167938707085D8FB767004061
:1031F000938747C098C381450945EFE09FC6814545
:103200000945EFE0BFCC930500100945EFF0AF8E04
:10321000930500040945EFF0CF9E8D650945EFE069
:103220003FD9B7670040938787C09C43C207C183DB
:103230003E879167F98F95C7B7670040938787C02E
:103240009C43C207C1833E8785679387F7F07D8FD4
:10325000B167938707085D8FB7670040938787C082
:1032600098C3B7670040938787C09C43C207C18358
:1032700093F7070495C7B7670040938787C09C43BF
:10328000C207C1833E8785679387F7F07D8FA1676B
:103290009387070C5D8FB7670040938787C098C3FB
:1032A00081450D45EFE0FFBB930500020D45EFE0C2
:1032B000FFC1930500140D45EFE01FFF81450D454B
:1032C000EFE01FCFB76700409387C7C09C43C2079A
:1032D000C18393F7070495C7B76700409387C7C0BA
:1032E0009C43C207C1833E8785679387F7F07D8F34
:1032F000A1679387070C5D8FB76700409387C7C0AE
:1033000098C3B76700409387C7C09C43C207C18377
:103310003E879167F98F95C7B76700409387C7C00D
:103320009C43C207C1833E8785679387F7F07D8FF3
:10333000B167938707085D8FB76700409387C7C061
:1033400098C3238B01880145EFE0AFA5054723A073
:10335000E1840100B240224441018280011106CE85
:1033600022CC0010AA872317F4FE0357E4FEB70708
:1033700000209385C7133A85EFD02FEBAA873E85AF
:10338000F240624405618280011106CE22CC001019
:10339000AA872317F4FE0357E4FE9385C1803A857C
:1033A000EFD0AFE8AA873E85F24062440561828093
:1033B000797106D622D40018AA87231FF4FC83A7AC
:1033C000C18883C73700A307F4FE0347F4FE914783
:1033D00063F4E70081470DA08347F4FE139737009D
:1033E000B70700209387470A3E978357E4FDBA85C5
:1033F0003E85EFD08FE3AA873E85B25022544561C7
:103400008280011122CE0010AA872E87A307F4FE26
:10341000BA872307F4FE8347E4FE99C3894709A8C6
:103420000347F4FE854763F4E700894711A081470D
:103430003E85724405618280011122CE0010AA8768
:103440002317F4FE8357E4FE81EB83A7C1881D4751
:103450002398E700814719A0938721103E85724485
:1034600005618280011122CE0010AA872317F4FE85
:103470008357E4FE81EB83A7C1881D472398E700AB
:10348000814719A0938721103E857244056182808F
:10349000797106D622D40018AA87A30FF4FC83A75B
:1034A000C18883C717002324F4FE232604FE83A7C4
:1034B000C18883C7070013F7F70785476314F70030
:1034C000894795A883A7C18883C7070013F7F70723
:1034D00093071002631EF702032784FE930710026E
:1034E0006319F700B7370000938787432326F4FE5C
:1034F00005A0032784FE930700026319F700B7377E
:103500000000938747462326F4FE19A0894725A08B
:103510008327C4FE85C383A7C1880327C4FE98CF31
:1035200083A7C188239907008327C4FE014582979A
:10353000814711A089473E85B2502254456182805F
:10354000797122D60018AA87A30FF4FC83A7C1883B
:1035500083C717002326F4FE83A7C18883C707000B
:1035600013F7F707930710026310F7020327C4FE4F
:1035700093072002630AF7000327C4FE9307300273
:103580006304F700894711A081473E8532544561A5
:103590008280011122CE001085472317F4FEB76701
:1035A0000040938707C40357E4FE98C3239801881B
:1035B00003D70189B7670040938707C498C3B767EB
:1035C0000040938747C423A007000967130707C07B
:1035D0002398E18803D70189B7670040938707C420
:1035E00098C381473E85724405618280011106CEF1
:1035F00022CC0010232604FEB7670040938707C43F
:103600009C432315F4FE232604FE15A88327C4FE3D
:1036100013972700B7670040938707C0BA979C436A
:10362000C207C183BE860327C4FE0A079387418A67
:10363000BA9794C38327C4FE85072326F4FE032785
:10364000C4FE9D47E3F4E7FC8357A4FE93E70740DD
:103650002315F4FEB7670040938707C40357A4FE01
:1036600098C38357A4FE93E717002315F4FEB767AA
:103670000040938707C40357A4FE98C38357A4FE52
:10368000F99B2315F4FEB7670040938707C40357DF
:10369000A4FE98C30100B7670040938747C49C43CA
:1036A000C207C18393F70740FDD7B76700409387F0
:1036B00047C441671307F7BF98C3232604FE1DA81C
:1036C0000327C4FE0A079387418ABA979C439396BF
:1036D0000701C1828327C4FE13972700B767004004
:1036E000938707C0BA97368798C38327C4FE850798
:1036F0002326F4FE0327C4FE9D47E3F3E7FC83572C
:10370000A4FE93E787002315F4FEB7670040938774
:1037100007C40357A4FE98C3B7670040938707C444
:103720009C432315F4FE8357A4FE93E7470023151B
:10373000F4FEB7670040938707C40357A4FE98C3FD
:10374000EFF02F810100F240624405618280011197
:1037500006CE22CC0010B7670040938707C49C4375
:103760002317F4FE8357E4FEED9B2317F4FEB7679F
:103770000040938707C40357E4FE98C3EFE09FFF20
:10378000B7670040938707C43167130707F098C3F2
:103790000100F240624405618280797106D622D42C
:1037A0000018232EA4FC0327C4FD9D476306F700E1
:1037B0000327C4FD23AEE18883A7C1891547636948
:1037C000F710139727009D679387072FBA979C439D
:1037D000828783A7418491E79D3F194723AEE18803
:1037E000FDA8154723AEE188DDA89537114723AE24
:1037F000E188054723A2E184DDA09387C1890947B9
:103800002382E7000D4723AEE188D1A89387C189C1
:1038100083C7470093F7F70FFD1713F7F70F938749
:10382000C1892382E7009387C18983C7470093F743
:10383000F70FDDE3114723AEE18879A8B7670040B1
:10384000938707C49C432317F4FE8357E4FE93E752
:1038500007012317F4FEB7670040938707C4035797
:10386000E4FE98C3154723AEE1889387C1892947B1
:103870002382E700ADA09387C18983C7470093F7F0
:10388000F70FFD1713F7F70F9387C1892382E7001E
:103890009387C18983C7470093F7F70FA1E3B76701
:1038A0000040938707C49C432317F4FE8357E4FE2C
:1038B000BD9B2317F4FEB7670040938707C40357E7
:1038C000E4FE98C3194723AEE18823A2018439A0FE
:1038D000194723AEE18821A0010011A001000100D9
:1038E000B250225445618280011122CE001023265D
:1038F000A4FE8327C4FEFD8B0547B316F70037E708
:1039000000E08327C4FE9583938707048A07BA974C
:1039100094C30100724405618280011122CE00101F
:103920002326A4FE8327C4FEFD8B0547B316F700AC
:1039300037E700E08327C4FE9583938707068A074D
:10394000BA9794C30100724405618280411106C692
:1039500022C4000885451145EF10807F8545370555
:103960000200EF10500385450545EF10D002854554
:103970000545EF10807981473E85B24022444101E0
:103980008280011106CE22CC0010232204FE2324C3
:1039900004FE231604FE37050040EF10F00C9307D9
:1039A00030062314F4FE03A70182B7470F00938764
:1039B0000724B357F702C207C183FD17C207C183AB
:1039C0002312F4FE231504FE231304FE930744FE82
:1039D000BE8537050040EF1050158545370500407E
:1039E000EF10D0310546854537050040EF10102A0D
:1039F0001305C002D53D854537050040EF109023E3
:103A00000100F240624405618280797122D600187B
:103A1000AA87A30FF4FC03C7810C018B2384E10C5C
:103A200003C7910C018BA384E10C9387810C03C71E
:103A30002700018B2381E70003C73700018BA38197
:103A4000E7009387810C03C74700018B2382E700BF
:103A500003C75700018BA382E7009387810C238360
:103A600007009387810C7947A383E7009387810C34
:103A700003C78700018B2384E70003C79700018BEE
:103A8000A384E7009387810C03C7A700018B2385DC
:103A9000E70003C7B700018BA385E7009387810C7C
:103AA00003C7C700018B2386E70003C7D700018B3C
:103AB000A386E700A30704FE35A00347F4FE06072C
:103AC0009387810CBA9703C7E700018B2387E70030
:103AD00003C7F700018BA387E7008347F4FE850740
:103AE000A307F4FE0347F4FEBD47E3F8E7FC938722
:103AF000810C238707029387810C03C70703018B7F
:103B00002388E70203C71703018BA388E702938783
:103B1000810C03C72703018B2389E70203C73703FF
:103B2000018BA389E7029387810C238A070293877D
:103B3000810C03C76703018B238BE70203C777035D
:103B4000018BA38BE7029387810C238C0702938759
:103B5000810CA38C070223A2010C23A801508347E8
:103B6000F4FDB1C79387810C238D07029387810CE5
:103B7000130720FCA38DE7029387810C0547238E52
:103B8000E7029387810CA38E07029387810C238F12
:103B900007029387810CA38F07029387810C21472B
:103BA0002380E7049387810C7947A380E704010011
:103BB000325445618280011106CE22CC0010AA87C2
:103BC0002324B4FE3687A307F4FEB2872307F4FE4E
:103BD000BA87A306F4FE8347F4FE3E85EFF0FFE2CA
:103BE0000100F240624405618280011106CE22CCC0
:103BF00000109387810C83C7D70393F7F70FE20771
:103C00003E879387810C83C7C70393F7F70FC207DB
:103C1000BA972326F4FE9387810C83C7B70393F7E3
:103C2000F70FA2073E879387810C83C7A70393F7FB
:103C3000F70FBA970327C4FEBA972326F4FE93879B
:103C4000810C83C7E703A305F4FE9387810C83C728
:103C5000F7032305F4FE0347A4FE8347B4FEBA86A8
:103C60003E868325C4FE0145EFF0FFF40100F240DB
:103C7000624405618280011106CE22CC0010938738
:103C8000810C83C7E70293F7F70F638B07229387B3
:103C9000810C2387070213054002EFF01FC81305AC
:103CA0003002EFF09FC71387810C03470703137798
:103CB000F70F9387810C83C7170393F7F70FA207BA
:103CC000D98F1397070141839386810C83C62603FE
:103CD00093F6F60F9387810C83C7370393F7F70F9B
:103CE000A207D58FC207C183BA97139707014183F3
:103CF0009387810C9375F70F83C62703818A3686D5
:103D0000AE86D18E2389D702218313160701418203
:103D100003C73703018BBA863287558FA389E70221
:103D20009387810C03C70703018B2388E70203C72E
:103D30001703018BA388E7021387810C0347A700B1
:103D40001377F70F9387810C83C7B70093F7F70FAB
:103D5000A207D98FC207C1833E8706079387810CCC
:103D6000BA9703C7E700018B2387E70003C7F70073
:103D7000018BA387E7001387810C0347A700137704
:103D8000F70F9387810C83C7B70093F7F70FA2074C
:103D9000D98FC207C1838507139707014183938792
:103DA000810C9375F70F83C6A700818A3686AE868D
:103DB000D18E2385D700218313160701418203C7C3
:103DC000B700018BBA863287558FA385E70013872A
:103DD000810C0347A7001377F70F9387810C83C7E4
:103DE000B70093F7F70FA207D98F13970701418305
:103DF000BD4763FEE7009387810C03C7A700018BD3
:103E00002385E70003C7B700018BA385E70013876D
:103E1000810C0347C7001377F70F9387810C83C783
:103E2000D70093F7F70FA207D98FC207C183FD17F9
:103E30001397070141839387810C9375F70F83C60E
:103E4000C700818A3686AE86D18E2386D70021832D
:103E500013160701418203C7D700018BBA86328748
:103E6000558FA386E7009387810C83C7970313F7C9
:103E7000F70F8547631DF7021387810C0347C700BF
:103E80001377F70F9387810C83C7D70093F7F70F4A
:103E9000A207D98F139707014183854763E9E7009C
:103EA0000945EFE06F9F9387810CA38C07021305F0
:103EB0004002EFF07FA313053002EFF0FFA235AC14
:103EC0001387810C0347C7001377F70F9387810C83
:103ED00083C7D70093F7F70FA207D98FC207C18313
:103EE000638D07201387810C034707031377F70FB0
:103EF0009387810C83C7170393F7F70FA207D98F16
:103F0000C207C183F9E71387810C0347A700137722
:103F1000F70F9387810C83C7B70093F7F70FA207BA
:103F2000D98FC207C1833E8706079387810CBA9752
:103F300003C7E7001377F70F83C7F70093F7F70F6F
:103F4000A207D98F1397070141839387810C93753B
:103F5000F70F83C60703818A3686AE86D18E238803
:103F6000D702218313160701418203C71703018B70
:103F7000BA863287558FA388E7021387810C0347DF
:103F8000A7001377F70F9387810C83C7B70093F7C8
:103F9000F70FA207D98FC207C1839A0713970701AA
:103FA00041839387810C9375F70F83C62703818A1A
:103FB0003686AE86D18E2389D70221831316070158
:103FC000418203C73703018BBA863287558FA38995
:103FD000E702232604FEA5A81387810C03472703C5
:103FE0001377F70F9387810C83C7370393F7F70F86
:103FF000A207D98FC207C1833E878327C4FE3E979D
:104000009386810C83C6260093F6F60F9387810C66
:1040100083C7370093F7F70FA207D58FC207C18375
:10402000BE868327C4FEB69793F6F77F9387011168
:10403000BA9703C70700B70700209387C71FB69733
:104040002380E7008327C4FE85072326F4FE138719
:10405000810C034707031377F70F9387810C83C7FE
:10406000170393F7F70FA207D98FC207C1833E87C3
:104070008327C4FEE3E2E7F61387810C03470703B7
:104080001377F70F9387810C83C7170393F7F70F05
:10409000A207D98F1397070141839387810C9375EA
:1040A000F70F83C64700818A3686AE86D18E23827B
:1040B000D700218313160701418203C75700018BE4
:1040C000BA863287558FA382E7001387810C034796
:1040D00007031377F70F9387810C83C7170393F7B1
:1040E000F70FA207D98FC207C1833E85EF10504E4C
:1040F0009387810C05472387E7020100F240624461
:1041000005618280011106CE22CC00101387810C3C
:10411000034747001377F70F9387810C83C7570036
:1041200093F7F70FA207D98FC207C1836389072AC4
:104130009387810C83C7470393F7F70F6390072694
:104140001387810C034747001377F70F9387810C80
:1041500083C7570093F7F70FA207D98FC207C18310
:104160002324F4FE231704FE032784FE9307F003A1
:1041700063F7E700930700042317F4FE1DA093875D
:10418000810C83C7670013F7F70F9387810C83C7F0
:10419000770093F7F70F6366F700832784FE2317F2
:1041A000F4FE0357E4FE9386810C83C6260093F643
:1041B000F60F9387810C83C7370093F7F70FA20799
:1041C000D58FC207C183BE86856793870780958F89
:1041D00063D9E7021387810C034727001377F70F92
:1041E0009387810C83C7370093F7F70FA207D98F06
:1041F000C207C183056713070780B307F74023177A
:10420000F4FE8357E4FE638C071C13054002EFF0B5
:10421000CFF013053002EFF04FF09387810C054784
:10422000238AE7029387810C03C76703018B238BE3
:10423000E70203C77703018BA38BE7021387810C87
:10424000034727001377F70F9387810C83C7370045
:1042500093F7F70FA207D98FC207C1833E87B7072D
:1042600000209387C71FBA970357E4FE3A86BE859E
:104270000D45EFE01F911387810C0347470013772B
:10428000F70F9387810C83C7570093F7F70FA207A7
:10429000D98F1397070141838357E4FEB307F74093
:1042A0001397070141839387810C9375F70F83C69A
:1042B0004700818A3686AE86D18E2382D70021833D
:1042C00013160701418203C75700018BBA86328754
:1042D000558FA382E7001387810C034727001377CC
:1042E000F70F9387810C83C7370093F7F70FA20767
:1042F000D98F1397070141838357E4FEBA97139729
:10430000070141839387810C9375F70F83C62700BC
:10431000818A3686AE86D18E2381D70021831316FB
:104320000701418203C73700018BBA863287558F58
:10433000A381E7001387810C034727001377F70F4A
:104340009387810C83C7370093F7F70FA207D98FA4
:104350001397070141839307F07F63FEE70093877C
:10436000810C03C72700018B2381E70003C73700B7
:10437000018BA381E7008357E4FE9387078091E7D1
:104380009387810C0547238CE70213054002EFF069
:10439000AFD513053002EFF02FD591A01387810C14
:1043A000034767031377F70F9387810C83C777035E
:1043B00093F7F70FA207D98F139707014183BD67C2
:1043C0009387F7A563FDE7009D671385C722EF106C
:1043D00040469387810C238A0702238B01889387A9
:1043E000810C83C7870393F7F70FE9C39387810C89
:1043F00083C7470393F7F70FD5EB1387810C034768
:1044000067031377F70F9387810C83C7770393F7BD
:10441000F70FA207D98F13970701418393077025E0
:1044200063F6E70813054002EFF02FCF13053002C3
:10443000EFF0AFCE9387810C0547238AE70293877D
:10444000810C03C76703018B238BE70203C7770344
:10445000018BA38BE7021387810C03472700137797
:10446000F70F9387810C83C7370093F7F70FA207E5
:10447000D98FC207C1833E87B70700209387C71F24
:10448000BA970146BE850D45EFE0AFEF9387810CEB
:10449000238A07029387810C238C070213054002AD
:1044A000EFF08FC413053002EFF00FC40100F240AB
:1044B000624405618280797122D60018232EA4FC03
:1044C000232604FEB7070140938707402326F4FE06
:1044D0008327C4FDDC4763800712B7070140938739
:1044E000074094438327C4FD9C4313C7F7FFB707D6
:1044F000014093870740758F98C3B70701409387A2
:104500000740D4438327C4FD9C4313C7F7FFB70775
:10451000014093870740758FD8C38327C4FDDC43D0
:104520000327C4FEBA972326F4FE8327C4FE9443D0
:104530008327C4FD98438327C4FE558F98C3B707CC
:1045400001409387074094478327C4FD9C4313C7CA
:10455000F7FFB707014093870740758F98C7B707E4
:10456000014093870740D4478327C4FD9C4313C76A
:10457000F7FFB707014093870740758FD8C7832798
:10458000C4FD9847C147631FF702B70701409387EF
:10459000074094478327C4FD9843B707014093879A
:1045A0000740558F98C7B707014093870740D44706
:1045B0008327C4FD9843B707014093870740558F71
:1045C000D8C7B1A8B7070140938707402326F4FE58
:1045D0008327C4FD9C470327C4FEBA972326F4FE15
:1045E0008327C4FE94438327C4FD98438327C4FED6
:1045F000558F98C32DA08327C4FDDC430327C4FE39
:10460000BA972326F4FE8327C4FE94438327C4FD70
:104610009C4313C7F7FF8327C4FE758F98C301001F
:10462000325445618280011122CE00102326A4FE5F
:10463000B7070140938707400327C4FED8CB01008A
:10464000724405618280397122DE80002326A4FC39
:104650002324B4FC232604FE232004FE232404FE8A
:10466000232E04FC232204FE232C04FC832784FC39
:104670009C47BD8B2326F4FE832784FC9C47C18B7B
:1046800089CB832784FCDC430327C4FED98F2326F0
:10469000F4FEB7270240938707039843B707000F3C
:1046A000F98F81E705472384E1840327C4FCB7170A
:1046B00001406311F70283C7818489CF832784FC7B
:1046C00083D70700B583139707014183832784FCB1
:1046D0002390E700832784FC83D7070093F7F70F25
:1046E000F1CF8327C4FC9C432322F4FE232404FE41
:1046F00065A8832784FE0547B317F700232EF4FC33
:10470000832784FC83D707003E878327C4FDF98F66
:104710002320F4FE032704FE8327C4FD6311F7085A
:10472000832784FE8A07232EF4FC8327C4FD3D479C
:10473000B317F700232CF4FC832784FD93C7F7FFFE
:10474000032744FEF98F2322F4FE8327C4FD0327A9
:10475000C4FEB317F700032744FED98F2322F4FECB
:10476000832784FC984793078002631BF700832705
:1047700084FE05473317F7008327C4FCD8CB05A078
:10478000832784FC984793078004631AF7008327E4
:1047900084FE05473317F7008327C4FC98CB832793
:1047A00084FE85072324F4FE032784FE9D47E3F25D
:1047B000E7F48327C4FC032744FE98C3832784FCC3
:1047C00003D707009307F00F63F1E70E8327C4FCBC
:1047D000DC432322F4FE232404FE75A8832784FEF1
:1047E000A1070547B317F700232EF4FC832784FCA9
:1047F00083D707003E878327C4FDF98F2320F4FE6B
:10480000032704FE8327C4FD6312F708832784FE71
:104810008A07232EF4FC8327C4FD3D47B317F70016
:10482000232CF4FC832784FD93C7F7FF032744FE62
:10483000F98F2322F4FE8327C4FD0327C4FEB31798
:10484000F700032744FED98F2322F4FE832784FC3C
:10485000984793078002631BF700832784FEA10714
:1048600005473317F7008327C4FCD8CB832784FC84
:10487000984793078004631BF700832784FEA107F2
:1048800005473317F7008327C4FC98CB832784FEA2
:1048900085072324F4FE032784FE9D47E3F0E7F415
:1048A0008327C4FC032744FED8C30100725421614E
:1048B0008280011122CE00102326A4FEAE8723227F
:1048C000C4FE2315F4FE0327C4FEB7170140631A84
:1048D000F70083C7818491C78357A4FEB58323154E
:1048E000F4FE832744FE99C70357A4FE8327C4FE22
:1048F00098CB31A00357A4FE8327C4FED8CB010078
:10490000724405618280797122D60018232EA4FC9E
:10491000232CB4FC232404FE232204FE232604FEBD
:10492000232004FE8327C4FD63D80700B707014096
:10493000DC4F2326F4FE2DA8B7070140DC432326D5
:10494000F4FEB7270240938707039843B707000F89
:10495000F98F99EF8327C4FE13D71700F9777D8F5E
:104960008326C4FE8967FD17F58FD98F2326F4FEB1
:104970008327C4FDC183BD8B2320F4FE0327C4FD20
:10498000C167FD17F98F2324F4FE8327C4FD63D488
:1049900007080327C4FDB70730007D8FB707300035
:1049A0006314F702832704FEC1070D47B317F7000E
:1049B0002322F4FE832744FE93C7F7FF0327C4FE98
:1049C000F98F2326F4FEC5A80327C4FDB7071000FE
:1049D000F98F95C3832704FE0D47B317F7002322F1
:1049E000F4FE832744FE93C7F7FF0327C4FEF98F25
:1049F0002326F4FEC9A08327C4FDD583920703278D
:104A000084FEB317F70093C7F7FF0327C4FEF98F9F
:104A10002326F4FE4DA00327C4FDB70730007D8F89
:104A2000B70730006315F7020327C4FEB70700F18C
:104A3000FD17F98F2326F4FEB7070140D443B707CB
:104A40000140370700F17D17758FD8C3ADA003274C
:104A5000C4FDB7071000F98F8DCB832704FE0D47E7
:104A6000B317F7002322F4FE832744FE93C7F7FF12
:104A70000327C4FEF98F2326F4FE0327C4FEB707DD
:104A8000000FD98F2326F4FE3DA08327C4FDD583D4
:104A90009207032784FEB317F70093C7F7FF032796
:104AA000C4FEF98F2326F4FE0327C4FEB707000FC8
:104AB000D98F2326F4FE832784FD91CF8327C4FD5D
:104AC000D5839207032784FEB317F7000327C4FE9C
:104AD000D98F2326F4FE8327C4FD63D80700B707C8
:104AE00001400327C4FED8CF31A0B70701400327F8
:104AF000C4FED8C30100325445618280411122C6F0
:104B0000000801003244410173002030411122C6E7
:104B100000089387810C83C7670093F7F70F850719
:104B200013F7F70F9387810C2383E7001387810C1A
:104B3000034767031377F70F9387810C83C77703C6
:104B400093F7F70FA207D98FC207C1838507139781
:104B5000070141839387810C9375F70F83C6670321
:104B6000818A3686AE86D18E238BD7022183131697
:104B70000701418203C77703018BBA863287558FBD
:104B8000A38BE702B707004079572398E70001009D
:104B90003244410173002030411122C6000801A0B7
:104BA000011122CE00102326A4FE8327C4FEFD8B14
:104BB0000547B316F70037E700E08327C4FE958367
:104BC000938707048A07BA9794C30100724405616A
:104BD0008280011122CE00102326A4FE8327C4FE6A
:104BE000FD8B0547B316F70037E700E08327C4FEC7
:104BF0009583938707068A07BA9794C30100724486
:104C000005618280011122CE00102326A4FEAE870A
:104C1000A305F4FE37E700E08327C4FEBA970347F5
:104C2000B4FE2380E74001007244056182800111D7
:104C300022CE00102326A4FE0327C4FE23A6E1846F
:104C40000100724405618280797106D622D4001871
:104C5000232EA4FCA30704FE83A7C18495E3832726
:104C6000C4FD83C707003E878327C4FD83C7270091
:104C7000920793F7F70FBE853A85EFF0BFF8D1AAF8
:104C800003A7C18485476311F7068327C4FD03C7C3
:104C9000170085476319F7028327C4FD83C7070000
:104CA0003E878327C4FD83C727009207E207E18779
:104CB00093E707F8E207E18793F7F70FBE853A8598
:104CC000EFF05FF479A28327C4FD83C707003E8716
:104CD0008327C4FD83C72700920793F7F70FBE858C
:104CE0003A85EFF03FF2B5A203A7C1848947631D5F
:104CF000F7088327C4FD03C71700854763EFE70262
:104D00008327C4FD03C727008327C4FD83C717007B
:104D10008A0793F7F70FBA97A307F4FE8327C4FD1A
:104D200083C707003E878347F4FE920793F7F70F88
:104D3000BE853A85EFF01FED29AA8327C4FD03C77E
:104D400027008327C4FD83C717009387E70393F7E2
:104D5000F70F8A0793F7F70FBA97A307F4FE832795
:104D6000C4FD83C707003E878347F4FE9207E2072E
:104D7000E18793E707F8E207E18793F7F70FBE852E
:104D80003A85EFF03FE8F1A003A7C1848D47631D8A
:104D9000F7088327C4FD03C717008D4763EFE702B9
:104DA0008327C4FD03C727008327C4FD83C71700DB
:104DB000860793F7F70FBA97A307F4FE8327C4FD7E
:104DC00083C707003E878347F4FE920793F7F70FE8
:104DD000BE853A85EFF01FE3ADA88327C4FD03C766
:104DE00027008327C4FD83C717009387C70793F75E
:104DF000F70F860793F7F70FBA97A307F4FE8327F9
:104E0000C4FD83C707003E878347F4FE9207E2078D
:104E1000E18793E707F8E207E18793F7F70FBE858D
:104E20003A85EFF03FDE35A003A7C18491476312B6
:104E3000F7028327C4FD83C707003E878327C4FD8D
:104E400083C71700920793F7F70FBE853A85EFF0F7
:104E50007FDB8327C4FDDC4389CB8327C4FD83C765
:104E600007003E85EFF0DFD301A88327C4FD83C789
:104E700007003E85EFF0FFD50100B2502254456196
:104E80008280011122CE00102326A4FEB717024013
:104E9000D443B7170240370740FF7D17758FD8C33B
:104EA000B7170240D4438327C4FE13976701B7178F
:104EB0000240558FD8C30100724405618280797128
:104EC00022D60018232EA4FC232404FE232604FE4D
:104ED000232204FE232004FEB7170240DC43B18BDB
:104EE0002324F4FE032784FE91476302F70203277D
:104EF00084FEA1476305F702832784FEF9EF832729
:104F0000C4FD37177A001307072098C3F9A8832731
:104F1000C4FD37177A001307072098C3F9A0B71705
:104F20000240D843B7073C00F98F2326F4FEB71799
:104F30000240D843C167F98F2322F4FE8327C4FEC1
:104F4000C98389072326F4FE0327C4FEC5476315DA
:104F5000F700C9472326F4FE832744FEA1E3B747A1
:104F60000240938707809C43C18B89CF0327C4FEEF
:104F7000B7177A00938707203307F7028327C4FD0A
:104F800098C3A5A00327C4FEB7173D0093870790D9
:104F90003307F7028327C4FD98C381A8B7170240DF
:104FA000D843B7070200F98F89CF0327C4FEB7178C
:104FB0003D00938707903307F7028327C4FD98C30A
:104FC0002DA00327C4FEB7177A0093870720330765
:104FD000F7028327C4FD98C309A88327C4FD3717A8
:104FE0007A001307072098C30100B7170240DC437B
:104FF00093F7070F2324F4FE832784FE9183232451
:10500000F4FEB70700201387470C832784FEBA9766
:1050100083C7070093F7F70F2320F4FE8327C4FD0F
:105020009843832704FE3357F7008327C4FDD8C372
:10503000B7170240DC4393F707702324F4FE83275D
:1050400084FEA1832324F4FEB70700201387470CB6
:10505000832784FEBA9783C7070093F7F70F2320AF
:10506000F4FE8327C4FDD843832704FE3357F7009B
:105070008327C4FD98C7B7170240D8439167938729
:105080000780F98F2324F4FE832784FEAD83232435
:10509000F4FEB70700201387470C832784FEBA97D6
:1050A00083C7070093F7F70F2320F4FE8327C4FD7F
:1050B000D843832704FE3357F7008327C4FDD8C79E
:1050C000B7170240D843B167F98F2324F4FE832732
:1050D00084FEB9832324F4FE13878181832784FE11
:1050E000BA9783C7070093F7F70F2320F4FE8327AF
:1050F000C4FDD847832704FE3357F7028327C4FD36
:1051000098CB0100325445618280011122CE0010FB
:105110002326A4FE2324B4FE832784FE99CBB7174D
:105120000240D44BB71702400327C4FE558FD8CB9B
:1051300021A8B7170240D44B8327C4FE13C7F7FF3B
:10514000B7170240758FD8CB010072440561828089
:10515000011122CE00102326A4FE2324B4FE8327AF
:1051600084FE99CBB7170240944FB717024003272C
:10517000C4FE558F98CF21A8B7170240944F8327BC
:10518000C4FE13C7F7FFB7170240758F98CF010011
:10519000724405618280011122CE00102326A4FEF4
:1051A0002324B4FE832784FE99CBB7170240D44F43
:1051B000B71702400327C4FE558FD8CF21A8B717D1
:1051C0000240D44F8327C4FE13C7F7FFB71702402E
:1051D000758FD8CF0100724405618280011122CE03
:1051E00000102326A4FE2324B4FE832784FE99CB3B
:1051F000B7170240D447B71702400327C4FE558FA4
:10520000D8C721A8B7170240D4478327C4FE13C7C5
:10521000F7FFB7170240758FD8C7010072440561C8
:105220008280011122CE00102326A4FE2324B4FE86
:10523000832784FE99CBB7170240944BB7170240DF
:105240000327C4FE558F98CB21A8B7170240944B73
:105250008327C4FE13C7F7FFB7170240758F98CB9B
:105260000100724405618280011106CE22CC00103B
:105270002326A4FE0327C4FEB7370140938707C047
:10528000631FF7008545856713850780EFF01FF5DD
:105290008145856713850780EFF05FF451A00327F0
:1052A000C4FEB7070040631BF70085450545EFF0D6
:1052B0005FF781450545EFF0DFF69DA00327C4FEAB
:1052C000B707004093870740631BF70085450945F2
:1052D000EFF03FF581450945EFF0BFF491A00327BA
:1052E000C4FEB717004093870780631BF70085450E
:1052F0001145EFF01FF381451145EFF09FF20DA02E
:105300000327C4FEB7170040938707C0631AF7004E
:1053100085452145EFF0FFF081452145EFF07FF015
:105320000100F240624405618280797122D6001842
:10533000232EA4FC232CB4FC231704FE8327C4FDD6
:1053400083D707002317F4FE0327C4FDB7370140B6
:10535000938707C06300F7040327C4FDB707004025
:10536000630AF7020327C4FDB7070040938707408D
:105370006302F7020327C4FDB71700409387078035
:10538000630AF7000327C4FDB7170040938707C0DF
:105390006311F7028357E4FE93F7F7F82317F4FE3F
:1053A000832784FD03D727008357E4FED98F231773
:1053B000F4FE8357E4FE93F7F7CF2317F4FE832719
:1053C00084FD03D767008357E4FED98F2317F4FECB
:1053D0008327C4FD0357E4FE2390E700832784FD61
:1053E00003D747008327C4FD2396E702832784FD64
:1053F00003D707008327C4FD2394E7020327C4FDD6
:10540000B7370140938707C0631DF700832784FDEA
:1054100083C787001397070141838327C4FD23981F
:10542000E7028327C4FD0547239AE70001003254B1
:1054300045618280011122CE00102326A4FE232480
:10544000B4FE832784FE8DC38327C4FE83D7070061
:10545000C207C18393E7170013970701418383278E
:10546000C4FE2390E70039A88327C4FE83D7070032
:10547000C207C183F99B1397070141838327C4FEA9
:105480002390E7000100724405618280011122CE61
:1054900000102326A4FEAE872322C4FE2315F4FEAB
:1054A000832744FE9DC38327C4FE83D7C700139779
:1054B000070141838357A4FED98F139707014183C6
:1054C0008327C4FE2396E70035A08327C4FE83D735
:1054D000C7001397070141838357A4FE93C7F7FFC3
:1054E000C207C183F98F1397070141838327C4FE45
:1054F0002396E7000100724405618280011122CEEB
:1055000000102326A4FEAE872315F4FE8357A4FEC5
:1055100093C7F7FF1397070141838327C4FE23989E
:10552000E70001007244056182805D7186C6A2C4F5
:105530008008232EA4FA232CB4FA232604FE232465
:1055400004FE232204FE232004FE232E04FC8327D2
:10555000C4FB232EF4FC8327C4FB83D70701C207B7
:10556000C1832326F4FE0327C4FEB567FD17F98F18
:105570002326F4FE832784FB83D767003E87832797
:10558000C4FED98F2326F4FE8327C4FE1397070198
:1055900041838327C4FB2398E7008327C4FB83D779
:1055A000C700C207C1832326F4FE0327C4FEBD67DC
:1055B0009387379FF98F2326F4FE832784FB03D735
:1055C0004700832784FB83D78700D98F1397070170
:1055D0004183832784FB83D7A700D98FC207C18368
:1055E0003E878327C4FED98F2326F4FE8327C4FE7B
:1055F0001397070141838327C4FB2396E700832782
:10560000C4FB83D74701C207C1832326F4FE0327C7
:10561000C4FEC1679387F7CFF98F2326F4FE832753
:1056200084FB83D7C7003E878327C4FED98F2326F8
:10563000F4FE8327C4FE1397070141838327C4FB2D
:10564000239AE700930784FC3E85EFF05F870327EA
:10565000C4FDB7470140938707806317F70083278E
:1056600044FD2324F4FE29A0832704FD2324F4FE13
:105670008327C4FB83D7C700C207C183C207C18782
:1056800063D20702032784FEBA878607BA978E077C
:105690003E97832784FB9C438607B357F702232258
:1056A000F4FE05A0032784FEBA878607BA978E0703
:1056B0003E97832784FB9C438A07B357F702232234
:1056C000F4FE032744FE93074006B357F702920700
:1056D0002326F4FE8327C4FE13D747009307400612
:1056E000B307F702032744FEB307F7402320F4FE75
:1056F0008327C4FB83D7C700C207C183C207C18702
:1057000063D20702832704FE8E07138727039307BC
:105710004006B357F7029D8B0327C4FED98F23267B
:10572000F4FE05A0832704FE92071387270393073F
:105730004006B357F702BD8B0327C4FED98F23263B
:10574000F4FE8327C4FE1397070141838327C4FB1C
:105750002394E7000100B640264461618280011174
:1057600022CE00102326A4FE2324B4FE832784FE29
:1057700095C38327C4FE83D7C700139707014183CE
:105780008967D98F1397070141838327C4FE239626
:10579000E70015A08327C4FE83D7C700139707012E
:1057A0004183F977FD17F98F139707014183832709
:1057B000C4FE2396E7000100724405618280011156
:1057C00022CE00102326A4FEAE872315F4FE8357B5
:1057D000A4FE93F7F71F1397070141838327C4FEA5
:1057E0002392E7000100724405618280797122D61C
:1057F0000018232EA4FCAE87231DF4FC232604FEF0
:105800008327C4FD83D7070013970701418383577C
:10581000A4FDF98FC207C18389C785472326F4FEFB
:1058200019A0232604FE8327C4FE3E853254456119
:105830008280797106D622D40018232EA4FC231767
:1058400004FE89A0010093050004B74701401385B9
:105850000780EFF0BFF9AA87FDD78357E4FE03273F
:10586000C4FDBA9783870700C207C183BE85B747C7
:10587000014013850780EFF09FF48357E4FE85070E
:105880002317F4FE8357E4FE0327C4FDBA978387EA
:105890000700CDFB0100B2502254456182804111C6
:1058A00022C6000803A70182B7177A009387072052
:1058B000B357F70213F7F70F2388E18483C70185F5
:1058C0001397070141839307803EB307F7021397AD
:1058D000070141832399E184010032444101828020
:1058E000797122D60018232EA4FC37F700E0544328
:1058F00037F700E0F99A54C303D72185BA86032706
:10590000C4FD3307D7022326E4FE37F700E08326E1
:10591000C4FEB68701481CCB232A0701B7F700E075
:105920009843B7F700E01367070198C3B7F700E0A3
:105930009843B7F700E01367170298C30100B7F761
:1059400000E0DC4313F717008547E31AF7FEB7F7CB
:1059500000E09843B7F700E0799B98C30100325408
:1059600045618280397106DE22DC80002326A4FC9A
:105970008545916713854700EFF08FFD9307002061
:105980002312F4FE8D472324F4FEE1472326F4FE80
:10599000930744FEBE85B717014013850780EFE0EB
:1059A0009FCA930700402312F4FE8D472324F4FE80
:1059B00091472326F4FE930744FEBE85B7170140A6
:1059C00013850780EFE03FC88327C4FC232AF4FC3B
:1059D000231C04FC231D04FC231E04FC231004FED2
:1059E000B147231FF4FC930744FDBE85B747014030
:1059F00013850780EFF07FB38545B74701401385D6
:105A00000780EFF0DFD50100F250625421618280FF
:105A1000797106D622D40018232EA4FC232CB4FCC2
:105A2000232AC4FC232604FE91A001009305000450
:105A3000B747014013850780EFF05FDBAA87FDD7EA
:105A4000832784FD13871700232CE4FC838707003A
:105A5000C207C183BE85B747014013850780EFF0B9
:105A60001FD68327C4FE85072326F4FE0327C4FE22
:105A7000832744FDE34BF7FA832744FD3E85B2506C
:105A8000225445618280011122CE00102326A4FEFB
:105A900003A7C1818327C4FE3E9793878151636D1D
:105AA000F70003A7C1818327C4FE3E97B7570020A4
:105AB0009387078063F4E700FD5739A803A7C181E6
:105AC0008327C4FE3E9723AEE18003A7C1818327CD
:105AD000C4FEB307F040BA973E85724405618280E8
