:020000040000FA
:040000008A11052834
:10000800CF298A1107288A11E7258A11D3008A1176
:10001800E8258A11D4008A11E9258A11D5008A11A8
:10002800EA258A11D6008A11EB258A11D7008A1190
:10003800EC258A11D8008A11ED258A11D9008A1178
:10004800EE258A11DA00831790308400F0308A1187
:10005800EF258A111030840070308A11EF258A113B
:100068008313A0308400E0308A11EF258A112030F4
:10007800840048308A11EF258A1170308400773067
:100088008A11EF2583018A116A2C031383128501D3
:100098008601870188018609870988090313831661
:1000A800C03085007B308600D03087000030880063
:1000B800F8308900003094000F309F0026309800F7
:1000C80019309900D830810003138312303094001E
:1000D8009030980020308B00A301A801A701881157
:1000E8003230322258240821C201C1015530E320A0
:1000F800AA30E02031213A21412148210800FF306F
:10010800C100C200FF30E0204108FF3A031D8628E5
:100118004208FF3A031D86280800FF30C100C200CC
:10012800BA20B6204108FF3A031D94284208FF3A36
:10013800031D942808003308320403190800330803
:10014800BE003208BD00FF30C100C200BE0ABA209E
:10015800B620BD0BAB28BE0BAB2808008C1EB228FE
:100168001A0808000C1EB62899000800C10FC2031F
:10017800C20A861303309300420803138316141C23
:10018800C328031383129300410803138316141C16
:10019800CB2803138312930003138316141CD2284D
:1001A80003138312930103138316141CD928031312
:1001B8008312130886170800C10FC203C20AC300BE
:1001C800861302309300420803138316141CEA288E
:1001D800031383129300410803138316141CF22897
:1001E800031383129300430803138316141CFA287D
:1001F80003138312930003138316141C012903139A
:100208008312130886170800861301309300003004
:1002180003138316141C0E2903138312930003136C
:100228008316141C15290313831213088617080054
:10023800851522217521023032220800C5000830B8
:10024800BC00C51B8817C51F8813C50D08170000FB
:1002580000000813BC0B2529080005110813851197
:100268003830222175210A303222080085110F30DA
:10027800222175210A3032220800851101302221FD
:1002880075210A3032220800851103302221752198
:1002980005303222080048212830BD0010302221C4
:1002A8008511752102303222BD0B542908004821DE
:1002B8002030851522211430BD00752102303222EC
:1002C800BD0B6129482108004F21203085152221C6
:1002D8001430BD00752102303222BD0B6E294F212A
:1002E80008000515000000000000000000000000E4
:1002F8000000000005110800831353308400083003
:10030800BD00851500082221752102303222840A99
:10031800BD0B86290800C701B601FF30C200C10025
:100328005530C3007F30BE00810100000B118B17D0
:10033800361D9C2936199E29BE0B9C291630BE00F5
:10034800BA20C300361DA6293619A829BE0BA42930
:100358008B1304227F30BE008101C70100000B11FE
:100368008B17361DB5293619B729BE0BB529BA2002
:10037800C300361DBD293619BF2938084206C500F5
:10038800C50AC50BBB2937084106C500C50AC50BF8
:10039800BB298B130800C4000B113B3081004718A0
:1003A800E429C718EB294719F329C719F729043095
:1003B80086064308C600B6010130C7004408090094
:1003C8000430461886060230C70044080900043085
:1003D80086064618F9290430C70044080900083081
:1003E800C70044080900043086060130C700C60C5F
:1003F800B60AB61D022AB6014308C6004408090019
:100408002030BE003630BD005F30BF00BF0B0A2A67
:10041800BD0B082ABE0B062A080093000313831697
:10042800141C142A03138312130808001030BB008D
:10043800C501A71B451427080139013AC506C50C93
:10044800A80CA70CBB0B1C2A0800231C2E2A270863
:10045800231008001A22231428080800A4001430C6
:10046800BF001030C000C00B372ABF0B352AA40BC1
:10047800332A0800BE01BD013D080F39031D462A75
:100488000A30B62029228A15A5278A117608B620AF
:100498007508B62029228A15A5278A117608B6205C
:1004A8007508B620BD0B402ABE0B3F2A080008116C
:1004B80005301122081508008313533084000830D2
:1004C800BB0008112F3011222F30112200081122F1
:1004D800840ABB0B6A2A00011122081508000811BA
:1004E8003230112208150800081136301122013067
:1004F80011220815080008113A3011223208112279
:10050800330811220815080008113B30112208157C
:10051800080008112730112200011122B007031822
:10052800B10ABB00000111229827BB0B962A0815B7
:100538005E24080008110C301122683011220001D5
:100548001122B20000011122B300000111220001A2
:100558001122081508000811C400063011224408A9
:100568001122000111220815080008113430112247
:100578000815080008113C301122320811223308EE
:1005880011220815080008113D301122081508002D
:100598000811223011220001112208150800081143
:1005A80031301122081508000811303011220815C1
:1005B8000800C3000811153011224308112208153C
:1005C8000800081101301122000111220815080045
:1005D8002311A60AA50A01303222CC22C30029061B
:1005E80003190034A50BEF2AA60BEF2A231543089D
:1005F800080008113E30112208151430A900A60180
:100608006430A500EC2223190800081127301122B4
:100618000001112200011122F40000011122F3004F
:1006280000011122F2000001112208150310F40D37
:10063800F30DF20D080008113F301122081514308F
:10064800A900A6016430A500EC22231908000811AE
:10065800273011220001112200011122AC000001F3
:100668001122AB0000011122AA0000011122000191
:100678001122AF0000011122AE0000011122AD00CD
:100688000001112208150310AC0DAB0DAA0D0310C3
:10069800AF0DAE0DAD0D0800A701A8012310B922BA
:1006A800B830A5000B30A6001430A900EC2223199D
:1006B80008000430B900B501B4018030B300B201BC
:1006C800BE220B30A600B830A5001E30A900EC22CF
:1006D8002319080008112D30112200011122BA0037
:1006E80029221122B40FB503B50A35083306031DB4
:1006F800812B340832060319832BBA0B742B081587
:100708000B30A600B830A5001E30A900EC22231932
:10071800080035083306031D952B340832060319E3
:10072800A02BC7220B30A600B830A5001E30A900A8
:10073800EC22231908006E2BC7220B30A600B83014
:10074800A5001430A900EC2223190800B90B5F2B6F
:1007580078220B30A600B830A5001430A900EC228E
:100768000800582460221030A500A6011430A90002
:10077800EC2223190800B922B830A5000B30A600D6
:100788001430A900EC2223190800B501B401380877
:10079800B3003708B200BE220B30A600B830A5005F
:1007A8001E30A900EC22231908003408C1003508BE
:1007B800C200C103031CC203642408112D30112296
:1007C80000011122BA00A9251122B40FB503B50AF8
:1007D80035083306031DF42B340832060319F62BAB
:1007E800BA0BE72B08150B30A600B830A5001E3051
:1007F800A900EC222319080035083306031D082C2C
:10080800340832060319132CC7220B30A600B8305F
:10081800A5001E30A900EC2223190800D92BC722F5
:100828000B30A600B830A5001430A900EC2223191B
:10083800080078220B30A600B830A5001430A900B3
:10084800EC220800FF30C200C1007F22A6018030E0
:10085800A5001D30A900EC22231908008D220130C3
:10086800322232083006031D3D2C330831060319A5
:10087800472C8822A601FF30A5001D30A900EC22D4
:1008880023190800322C3208B7003308B8000811C1
:1008980036301122000111220815A6018030A5006A
:1008A8001430A900EC220800F001A101F101A20115
:1008B800A0010800A00803190800A925E0205E2C63
:1008C800200903190800BA209827642CD1018A113D
:1008D80049208A1191308A11DE278A118A114F2105
:1008E8008A1174308A1588278A118E2DDE305206B7
:1008F800031D8E2DD101D10A8E2DAD305206031D58
:10090800872C0230982CD1018E2DBE305206031D43
:10091800872C0330982CEF305206031D972C11308A
:100928008A1588278A110430D0005008D1008E2DEE
:100938008A115B228A11752D8A119E268A11752DBE
:100948008A11E5228A11032D05308A11DD228A11C8
:10095800752D06308A11DD228A11752D07308A110E
:10096800DD228A11752D8A11D8228A11752D8A11D6
:10097800D3228A11752D8A11CC228A11032D8A114E
:1009880024278A11752D8A15C8278A11752D8A1171
:1009980060228A118A1180218A11752D8A11732289
:1009A8008A11752D8A1178228A11752D8A119E2235
:1009B8008A1168308A1588278A1133088A15A5276D
:1009C8008A1176088A11B6208A1175088A11B6200C
:1009D8008A118312031332088A15A5278A1176080B
:1009E8008A11B6208A1175088A11B6208A110A3030
:1009F8008A11B6208A11752D8A1126248A1183122C
:100A08000313D0005008D200752D8A11B9228A111B
:100A1800752D8A11B5238A11752D8A1150238A11D3
:100A2800752D8A1183208A11752D8A1191208A11BA
:100A3800752D8A119F208A11752D8A113E228A11DF
:100A4800752D1030D0005008B200B3011D2D52088A
:100A5800003A03199C2C013A0319A02C033A0319F4
:100A6800A42C013A0319A82C073A0319AD2C013A12
:100A78000319B22C033A0319B72C013A0319BB2CFA
:100A88000F3A0319BF2C013A0319C32C033A03196F
:100A9800C72C013A0319CB2C073A0319D22C013A77
:100AA8000319D62C033A0319DA2C013A0319002D3D
:100AB8001F3A0319092D013A03190D2D033A031999
:100AC800112D323A0319152D013A0319192D033A3C
:100AD80003191D2D013A0319212D073A0319252D54
:100AE800752D8312031352088A15A5278A117608D3
:100AF8008A11B6208A1175088A11B6208A118A11BE
:100B080068218A1176088A111C218A1175088A11B0
:100B18001C218A118A11B2208A1183120313D00072
:100B28005008D2005108003A03197A2C013A0319E7
:100B3800812C033A0319892C013A03198F2C073A9F
:100B480003192B2D8E2D8A110528BB2D7108A03E67
:100B580084008313B62D7108503EB42D7108703E81
:100B6800840083170008F9007908FA00D72D83124A
:100B780003132208003A0319AA2D013A0319AA2DD2
:100B8800033A0319AF2D013A0319AF2D073A031998
:100B9800AF2D013A0319B22D033A0319B22D013AC8
:100BA8000319B22DD72D0130F9007908F107710822
:100BB8001F39031DE32D0130F9007908A207013020
:100BC800A0027A080800443445345234473441348A
:100BD8004E345134513464008001840A04060319E8
:060BE80000340406F02DAC
:100C000006308A000408840A820700343034313404
:100C10003234333434343534363437343834393488
:100C200041344234433444344534463443346F34DD
:100C30006D346D3461346E34643420346D346F340B
:100C4000643465340A340034543469346D346534A2
:100C50006F34753474343A3420340034553453349A
:100C6000423420344134753474346F3463346F3417
:100C70006E346634693467343A340A34003450349C
:100C80006834793473346934633461346C342034B7
:100C9000623479347434653473343A342034003433
:100CA0004C346F3467346934633461346C342034C9
:100CB000623479347434653473343A342034003413
:100CC0004634723465346534203462347934743493
:100CD000653473343A3420340034463469346C3427
:100CE00065342034733469347A3465343A342034CA
:100CF000003464346534613464346234653465349A
:100D000066340A34003456346534723473346934CA
:100D10006F346E343A3420340034533474346134D4
:100D20007434753473343A342034003444347234B7
:100D3000613467346F346E347334003429308A156B
:100D400088278A1155308A11AF228A118312031322
:100D5000CE004E08CF004F088A15A5278A117608C5
:100D60008A11B6208A1175088A11B6208A110A30B4
:100D70008A11B6208A118A11E5228A11831203137F
:100D8000CE004E08CF004F088A15A5278A117E3065
:100D90008A1588278A1176088A11B6208A11750863
:100DA0008A11B6208A110A308A11B6208A110530BC
:100DB0008A11DD228A1101308A1132228A1107300C
:100DC0008A11DD228A1101308A1132228A110630FD
:100DD0008A11DD228A1101308A1132228A118A1188
:100DE000D8228A11FA308A1132228A11FA308A11F5
:100DF00032228A118A11D3228A11FA308A113222C0
:100E00008A11FA308A1132228A118A11CC228A116F
:100E100083120313CE004E08CF004F088A15A52772
:100E20008A1188308A1588278A1176088A11B62097
:100E30008A1175088A11B6208A110A308A11B620E3
:100E40008A118A11242708008A111F238A114B3026
:100E50008A1588278A112A088A15A5278A117608F3
:100E60008A11B6208A1175088A11B6208A11831258
:100E700003132B088A15A5278A1176088A11B62034
:100E80008A1175088A11B6208A11831203132C085F
:100E90008A15A5278A1176088A11B6208A11750845
:100EA0008A11B6208A1130308A11B6208A1130306A
:100EB0008A11B6208A110A308A11B6208A115B3055
:100EC0008A1588278A112D088A15A5278A11760880
:100ED0008A11B6208A1175088A11B6208A118312E8
:100EE00003132E088A15A5278A1176088A11B620C1
:100EF0008A1175088A11B6208A11831203132F08EC
:100F00008A15A5278A1176088A11B6208A117508D4
:100F10008A11B6208A1130308A11B6208A113030F9
:100F20008A11B6208A110A308A11B6208A11080067
:100F3000F800B02F7808F7007008A03E840077080A
:100F40008313AE2F7808F7007008503EAB2F780857
:100F5000F7007008703E8400770883178000CC2F5C
:100F6000831203132108003A03199A2F013A031937
:100F70009A2F033A0319A22F013A0319A22F073A15
:100F80000319A22F013A0319A72F033A0319A72F18
:100F9000013A0319A72FCC2F0130F7007708F0078B
:100FA00070081F39031DD82F0130F7007708A107FB
:100FB0000130F7007708A007200808008312031308
:100FC000CC00CD014D084C0784008A1100268A11FF
:100FD000003A031908004D084C0784008A110026C6
:100FE0008A118A111C218A11013083120313CB004C
:060FF0004B08CD07E22FC3
:101F100083120313CD00CC014C084D0784008A11B5
:101F200000268A15003A031908004C084D07840062
:101F30008A1100268A158A11B6208A15013083126B
:101F40000313CB004B08CC078C2F83120313CA005A
:101F50004A080F39013E84008A1100268A15C800FC
:101F60004808F5004A08C80004300310C80CFF3EBA
:101F7000031DB52F4808C9004908CA004A080F398F
:101F8000013E84008A110026C8004808F6000800B7
:101F90008A11FD228A153A308A1588278A15720817
:101FA0008A15A5278A1576088A11B6208A1575081C
:101FB0008A11B6208A1573088A15A5278A1576080E
:101FC0008A11B6208A1575088A11B6208A157408F8
:101FD0008A15A5278A1576088A11B6208A157508EC
:101FE0008A11B6208A1530308A11B6208A15303011
:101FF0008A11B6208A150A308A11B6208A1508007F
:04400E00E1FEBCFF14
:00000001FF
