:020000040000FA
:100000008A11BE2F00308A000408840A8207003457
:1000100030343134323433343434353436343734A4
:10002000383439344134423443344434453446342A
:1000300043346F346D346D3461346E346434203441
:100040006D346F34643465340A34003454346934A4
:100050006D3465346F34753474343A34203400347C
:1000600055345334423420344134753474346F344D
:1000700063346F346E346634693467343A340A3426
:1000800000345034683479347334693463346134FF
:100090006C342034623479347434653473343A34D3
:1000A000203400344C346F34673469346334613441
:1000B0006C342034623479347434653473343A34B3
:1000C000203400344634723465346534203462346C
:1000D00079347434653473343A342034003446341B
:1000E00069346C3465342034733469347A3465345B
:1000F0003A34203400346434653461346434623416
:100100006534653466340A340034563465347234E8
:10011000733469346F346E343A34203400345334D9
:10012000743461347434753473343A3420340034A4
:1001300044347234613467346F346E347334003451
:1002720064008001840A04060319003404063A2942
:10028200443445345234473441344E345134513479
:1002920083120313CA00C90149084A0784008A115C
:1002A20002208A11003A0319080049084A0784000B
:1002B2008A1102208A118A1101258A1101308312C2
:1002C2000313C8004808C9074D2983120313C90044
:1002D200CA014A08490784008A1102208A11003A99
:1002E200031908004A08490784008A1102208A116A
:1002F2008A1167258A11013083120313C800480846
:10030200CA076A2983120313C70047080F39013E3F
:1003120084008A1102208A11C5004508F5004708A9
:10032200C50004300310C50CFF3E031D9329450888
:10033200C6004608C70047080F39013E84008A11EB
:100342000220C5004508F60008008A11C2268A115B
:100352003A308A1149218A1172088A1183218A113D
:1003620076088A1101258A1175088A1101258A11D8
:1003720073088A1183218A1176088A1101258A114C
:1003820075088A1101258A1174088A1183218A113C
:1003920076088A1101258A1175088A1101258A11A8
:1003A20030308A1101258A1130308A1101258A11D3
:1003B2000A308A1101258A110800F0297108A03E2D
:1003C20084008313EB297108503EE9297108703EBD
:1003D200840083170008F9007908FA000C2A8312B6
:1003E20003132208003A0319DF29013A0319DF290E
:1003F200033A0319E429013A0319E429073A0319D4
:10040200E429013A0319E729033A0319E729013AD2
:100412000319E7290C2A0130F9007908F10771085C
:100422001F39031D182A0130F9007908A20701308B
:10043200A0027A080800F800342A7808F700700849
:10044200A03E840077088313322A7808F7007008E8
:10045200503E2F2A7808F7007008703E8400770813
:1004620083178000502A831203132108003A0319CC
:100472001E2A013A03191E2A033A0319262A013AAF
:100482000319262A073A0319262A013A03192B2AA5
:10049200033A03192B2A013A03192B2A502A013055
:1004A200F7007708F00770081F39031D5C2A013036
:1004B200F7007708A1070130F7007708A0072008A6
:1004C20008008A11E4268A114B308A1149218A11C7
:1004D2002A088A1183218A1176088A1101258A1134
:1004E20075088A1101258A11831203132B088A11B8
:1004F20083218A1176088A1101258A1175088A11C9
:1005020001258A11831203132C088A1183218A116F
:1005120076088A1101258A1175088A1101258A1126
:1005220030308A1101258A1130308A1101258A1151
:100532000A308A1101258A115B308A1149218A11F8
:100542002D088A1183218A1176088A1101258A11C0
:1005520075088A1101258A11831203132E088A1144
:1005620083218A1176088A1101258A1175088A1158
:1005720001258A11831203132F088A1183218A11FC
:1005820076088A1101258A1175088A1101258A11B6
:1005920030308A1101258A1130308A1101258A11E1
:1005A2000A308A1101258A11080029308A1149214D
:1005B2008A1155308A1174268A1183120313CB00D3
:1005C2004B08CC004C088A1183218A1176088A11C3
:1005D20001258A1175088A1101258A110A308A11AA
:1005E20001258A118A11AA268A1183120313CB00CC
:1005F2004B08CC004C088A1183218A117E308A1163
:1006020049218A1176088A1101258A1175088A11F1
:1006120001258A110A308A1101258A1105308A11B1
:10062200A2268A1101308A11FB258A1107308A110C
:10063200A2268A1101308A11FB258A1106308A11FD
:10064200A2268A1101308A11FB258A118A119D2660
:100652008A11FA308A11FB258A11FA308A11FB2598
:100662008A118A1198268A11FA308A11FB258A1179
:10067200FA308A11FB258A118A1191268A11831276
:100682000313CB004B08CC004C088A1183218A113A
:1006920088308A1149218A1176088A1101258A1126
:1006A20075088A1101258A110A308A1101258A11D9
:1006B2008A1162220800CE018A1194248A11913093
:1006C2008A1166218A118A119A258A1174308A1137
:1006D20049218A11792CDE304F06031D792CCE0177
:1006E200CE0A792CAD304F06031D792B02308A2BAE
:1006F200CE01792CBE304F06031D792B03308A2B95
:10070200EF304F06031D892B11308A1149218A11BE
:100712000430CD004D08CE00792C8A1120268A1192
:10072200602C8A11D6228A11602C8A11AA268A117B
:10073200F52B05308A11A2268A11602C06308A1107
:10074200A2268A11602C07308A11A2268A11602CF7
:100752008A119D268A11602C8A1198268A11602C92
:100762008A1191268A11F52B8A1162228A11602C34
:100772008A11A6218A11602C8A1125268A118A11D2
:10078200CB258A11602C8A1138268A11602C8A1195
:100792003D268A11602C8A1163268A1168308A11DB
:1007A20049218A1133088A1183218A1176088A1114
:1007B20001258A1175088A1101258A1183120313F2
:1007C20032088A1183218A1176088A1101258A1139
:1007D20075088A1101258A110A308A1101258A11A8
:1007E200602C8A117A278A1183120313CD004D08D7
:1007F200CF00602C8A117E268A11602C8A1115275F
:100802008A11602C8A11CE248A11602C8A11DC2470
:100812008A11602C8A11EA248A11602C8A11072617
:100822008A11602C1030CD004D08B200B3010B2CA0
:100832004F08003A03198E2B013A0319922B033AFF
:100842000319962B013A03199A2B073A03199F2B86
:10085200013A0319A42B033A0319A92B013A0319EC
:10086200AD2B0F3A0319B12B013A0319B52B033AF9
:100872000319B92B013A0319BD2B073A0319C42BEB
:10088200013A0319C82B033A0319CC2B013A031975
:10089200F22B1F3A0319FB2B023A0319FF2B323AB0
:1008A2000319032C013A0319072C033A03190B2CE1
:1008B200013A03190F2C073A0319132C602C8312E7
:1008C20003134F088A1183218A1176088A110125A0
:1008D2008A1175088A1101258A118A11B3258A1194
:1008E20076088A1167258A1175088A1167258A1187
:1008F2008A11FD248A1183120313CD004D08CF0003
:100902004E08003A03196C2B013A0319732B033A70
:1009120003197B2B013A0319812B073A0319192C6E
:10092200792C8A110028031383128501860187011D
:10093200880186098709880903138316C030850058
:100942007B308600D030870000308800F830890084
:10095200003094000F309F00263098001930990023
:10096200D830810003138312303094009030980005
:1009720020308B00A301A801A70188113230FB258A
:10098200AC275325C101C00155302E25AA302B2595
:100992007C2585258C2593250800FF30C000C100E9
:1009A200FF302B254008FF3A031DD12C4108FF3AA6
:1009B200031DD12C0800FF30C000C1000525012510
:1009C2004008FF3A031DDF2C4108FF3A031DDF2CCC
:1009D200080033083204031908003308BD00320846
:1009E200BC00FF30C000C100BD0A05250125BC0BBB
:1009F200F62CBD0BF62C08008C1EFD2C1A080800E4
:100A02000C1E012D99000800C00FC103C10A8613F4
:100A120003309300410803138316141C0E2D031395
:100A220083129300400803138316141C162D03131C
:100A32008312930003138316141C1D2D03138312B8
:100A4200930103138316141C242D0313831213081A
:100A520086170800C00FC103C10AC2008613023004
:100A62009300410803138316141C352D03138312BC
:100A72009300400803138316141C3D2D03138312A5
:100A82009300420803138316141C452D031383128B
:100A9200930003138316141C4C2D031383121308A3
:100AA2008617080086130130930000300313831663
:100AB200141C592D03138312930003138316141C61
:100AC200602D0313831213088617080085156D2500
:100AD200C0250230FB250800C4000830BB00C41B3F
:100AE2008817C41F8813C40D0817000000000813DC
:100AF200BB0B702D080005110813851138306D25C8
:100B0200C0250A30FB25080085110F306D25C02550
:100B12000A30FB250800851101306D25C0250A30F9
:100B2200FB250800851103306D25C0250530FB2506
:100B3200080093252830BC0010306D258511C02592
:100B42000230FB25BC0B9F2D080093252030851514
:100B52006D251430BC00C0250230FB25BC0BAC2D2A
:100B6200932508009A25203085156D251430BC0088
:100B7200C0250230FB25BC0BB92D9A2508000515AE
:100B82000000000000000000000000000000000063
:100B9200051108008313503084000830BC0085150D
:100BA20000086D25C0250230FB25840ABC0BD12D1F
:100BB2000800930003138316141CDD2D0313831204
:100BC200130808001030BA00C401A71B44142708F8
:100BD2000139013AC406C40CA80CA70CBA0BE52DC6
:100BE2000800231CF72D270823100800E3252314EF
:100BF20028080800A4001430BE001030BF00BF0B4C
:100C0200002EBE0BFE2DA40BFC2D0800BD01BC0165
:100C12003C080F39031D0F2E0A300125F2258321CE
:100C22007608012575080125F2258321760801251C
:100C320075080125BC0B092EBD0B082E08000811F2
:100C42000530DA2508150800831350308400083077
:100C5200BA0008112F30DA252F30DA250008DA25FC
:100C6200840ABA0B2F2E0001DA2508150800081194
:100C72003230DA250815080008113630DA2501303D
:100C8200DA250815080008113A30DA253208DA2583
:100C92003308DA250815080008113B30DA25081553
:100CA200080008112730DA250001DA25B0070318F9
:100CB200B10ABA000001DA251C22BA0B5B2E081514
:100CC200B227080008110C30DA256830DA25000155
:100CD200DA25B2000001DA25B3000001DA250001AD
:100CE200DA25081508000811C3000630DA25430882
:100CF200DA250001DA250815080008113430DA2552
:100D02000815080008113C30DA253208DA253308C4
:100D1200DA250815080008113D30DA250815080003
:100D220008112230DA250001DA2508150800081119
:100D32003130DA250815080008113030DA25081597
:100D42000800C20008111530DA254208DA25081514
:100D5200080008110130DA250001DA25081508001B
:100D62002311A60AA50A0130FB259126C2002906F5
:100D720003190034A50BB42EA60BB42E231542087A
:100D8200080008113E30DA2508151430A900A60122
:100D92006430A500B1262319080008112730DA258E
:100DA2000001DA250001DA25F4000001DA25F3005A
:100DB2000001DA25F2000001DA2508150310F40D0E
:100DC200F30DF20D080008113F30DA250815143032
:100DD200A900A6016430A500B12623190800081154
:100DE2002730DA250001DA250001DA25AC000001FE
:100DF200DA25AB000001DA25AA000001DA2500019C
:100E0200DA25AF000001DA25AE000001DA25AD00D7
:100E12000001DA2508150310AC0DAB0DAA0D031065
:100E2200AF0DAE0DAD0D0800A701A80123107E265F
:100E3200B830A5000B30A6001430A900B126231942
:100E420008000430B800B501B4018030B300B2012B
:100E520083260B30A600B830A5001E30A900B126AB
:100E62002319080008112D30DA250001DA25B9000E
:100E7200F225DA25B40FB503B50A35083306031D8A
:100E8200462F340832060319482FB90B392F08159B
:100E92000B30A600B830A5001E30A900B1262319D8
:100EA200080035083306031D5A2F34083206031989
:100EB200652F8C260B30A600B830A5001E30A90085
:100EC200B12623190800332F8C260B30A600B83028
:100ED200A5001430A900B12623190800B80B242F4D
:100EE2003D260B30A600B830A5001430A900B1266B
:100EF2000800FF30C100C0004426A6018030A500D2
:100F02001D30A900B1262319080052260130FB2505
:100F120032083006031D912F3308310603199B2F27
:100F22004D26A601FF30A5001D30A900B1262319C8
:100F32000800862F3208B6003308B7000811363091
:100F4200DA250001DA250815A6018030A500143043
:100F5200A900B1260800F001A101F101A201A0013E
:100F62000800A00803190800DE212B25B22F200952
:100F72000319080005251C22B82F8A1141218A1164
:100F8200D0008A1142218A11D1008A1143218A118B
:100F9200D2008A1144218A11D3008A1145218A1173
:100FA200D4008A1146218A11D5008A1147218A115B
:100FB200D6008A1148218A11D70083179030840005
:100FC200F0308A1139218A111030840070308A1170
:100FD20039218A118313A0308400E0308A1139212B
:100FE2008A112030840045308A1139218A117030EB
:0E0FF200840077308A11392183018A115C2B2B
:04400E00E1FEBCFF14
:00000001FF
