:020000040000FA
:100000008A11BE2F00308A000408840A8207003457
:1000100030343134323433343434353436343734A4
:10002000383439344134423443344434453446342A
:1000300043346F346D346D3461346E346434203441
:100040006D346F34643465340A34003454346934A4
:100050006D3465346F34753474343A34203400347C
:1000600055345334423420344134753474346F344D
:1000700063346F346E346634693467343A340A3426
:1000800000345034683479347334693463346134FF
:100090006C342034623479347434653473343A34D3
:1000A000203400344C346F34673469346334613441
:1000B0006C342034623479347434653473343A34B3
:1000C000203400344634723465346534203462346C
:1000D00079347434653473343A342034003446341B
:1000E00069346C3465342034733469347A3465345B
:1000F0003A34203400346434653461346434623416
:100100006534653466340A340034563465347234E8
:10011000733469346F346E343A34203400345334D9
:10012000743461347434753473343A3420340034A4
:1001300044347234613467346F346E347334003451
:10034A0064008001840A0406031900340406A629FD
:10035A00443445345234473441344E3451345134A0
:10036A0083120313C600C5014508460784008A1193
:10037A0002208A11003A031908004508460784003A
:10038A008A1102208A118A1166258A110130831284
:10039A000313C4004408C507B92983120313C5000F
:1003AA00C6014608450784008A1102208A11003ACC
:1003BA00031908004608450784008A1102208A1199
:1003CA008A11CC258A11013083120313C400440810
:1003DA00C607D62983120313C30043080F39013E07
:1003EA0084008A1102208A11C1004108F5004308DD
:1003FA00C10004300310C10CFF3E031DFF29410850
:10040A00C2004208C30043080F39013E84008A1122
:10041A000220C1004108F60008008A1127278A1124
:10042A003A308A11B5218A1172088A11EF218A118C
:10043A0076088A1166258A1175088A1166258A1135
:10044A0073088A11EF218A1176088A1166258A11A2
:10045A0075088A1166258A1174088A11EF218A1192
:10046A0076088A1166258A1175088A1166258A1105
:10047A0030308A1166258A1130308A1166258A1130
:10048A000A308A1166258A1108005C2A7108A03E82
:10049A0084008313572A7108503E552A7108703E0A
:1004AA00840083170008F9007908FA00782A831271
:1004BA0003132208003A03194B2A013A03194B2A5B
:1004CA00033A0319502A013A0319502A073A031921
:1004DA00502A013A0319532A033A0319532A013AB3
:1004EA000319532A782A0130F9007908F1077108AB
:1004FA001F39031D842A0130F9007908A207013047
:10050A00A0027A080800F800A02A7808F700700804
:10051A00A03E8400770883139E2A7808F7007008A3
:10052A00503E9B2A7808F7007008703E84007708CE
:10053A0083178000BC2A831203132108003A031987
:10054A008A2A013A03198A2A033A0319922A013A92
:10055A000319922A073A0319922A013A0319972A88
:10056A00033A0319972A013A0319972ABC2A013038
:10057A00F7007708F00770081F39031DC82A0130F1
:10058A00F7007708A1070130F7007708A0072008CD
:10059A0008008A1149278A114B308A11B5218A111C
:1005AA002A088A11EF218A1176088A1166258A118A
:1005BA0075088A1166258A11831203132B088A117A
:1005CA00EF218A1176088A1166258A1175088A111F
:1005DA0066258A11831203132C088A11EF218A11C6
:1005EA0076088A1166258A1175088A1166258A1184
:1005FA0030308A1166258A1130308A1166258A11AF
:10060A000A308A1166258A115B308A11B5218A114E
:10061A002D088A11EF218A1176088A1166258A1116
:10062A0075088A1166258A11831203132E088A1106
:10063A00EF218A1176088A1166258A1175088A11AE
:10064A0066258A11831203132F088A11EF218A1152
:10065A0076088A1166258A1175088A1166258A1113
:10066A0030308A1166258A1130308A1166258A113E
:10067A000A308A1166258A11080029308A11B521A3
:10068A008A1155308A11D9268A1183120313C70099
:10069A004708C80048088A11EF218A1176088A118A
:1006AA0066258A1175088A1166258A110A308A1107
:1006BA0066258A118A110F278A1183120313C7002C
:1006CA004708C80048088A11EF218A117E308A112A
:1006DA00B5218A1176088A1166258A1175088A1148
:1006EA0066258A110A308A1166258A1105308A110F
:1006FA0007278A1101308A1160268A1107308A1168
:10070A0007278A1101308A1160268A1106308A1158
:10071A0007278A1101308A1160268A118A11022755
:10072A008A11FA308A1160268A11FA308A116026F3
:10073A008A118A11FD268A11FA308A1160268A11D5
:10074A00FA308A1160268A118A11F6268A118312D2
:10075A000313C7004708C80048088A11EF218A1105
:10076A0088308A11B5218A1176088A1166258A117C
:10077A0075088A1166258A110A308A1166258A1136
:10078A008A11CE220800CA018A11F9248A119130ED
:10079A008A11D2218A118A11FF258A1174308A118D
:1007AA00B5218A11DE2CDE304B06031DDE2CCA0170
:1007BA00CA0ADE2CAD304B06031DE52B0230F62BA0
:1007CA00CA01DE2CBE304B06031DE52B0330F62B87
:1007DA00EF304B06031DF52B11308A11B5218A1112
:1007EA000430C9004908CA00DE2C8A1185268A11FC
:1007FA00C52C8A1142238A11C52C8A110F278A1106
:10080A00612C05308A1107278A11C52C06308A11F6
:10081A0007278A11C52C07308A1107278A11C52C88
:10082A008A1102278A11C52C8A11FD268A11C52C24
:10083A008A11F6268A11612C8A11CE228A11C52CB8
:10084A008A1112228A11C52C8A118A268A118A11C2
:10085A0030268A11C52C8A119D268A11C52C8A1127
:10086A00A2268A11C52C8A11C8268A1168308A11D3
:10087A00B5218A1133088A11EF218A1176088A1163
:10088A0066258A1175088A1166258A11831203134F
:10089A0032088A11EF218A1176088A1166258A118F
:1008AA0075088A1166258A110A308A1166258A1105
:1008BA00C52C8A117A278A1183120313C9004908A1
:1008CA00CB00C52C8A11E3268A11C52C8A1133253F
:1008DA008A11C52C8A1141258A11C52C8A114F25E6
:1008EA008A11C52C8A116C268A11C52C1030C900B0
:1008FA004908B200B301732C4B08003A0319FA2BCA
:10090A00013A0319FE2B033A0319022C013A03197F
:10091A00062C073A03190B2C013A0319102C033A37
:10092A000319152C013A0319192C0F3A03191D2C16
:10093A00013A0319212C033A0319252C013A031908
:10094A00292C073A0319302C013A0319342C033A9B
:10095A000319382C013A03195E2C1F3A0319672C24
:10096A00303A03196B2C013A03196F2C033A031915
:10097A00732C013A0319772C073A03197B2CC52CDF
:10098A00831203134B088A11EF218A1176088A1100
:10099A0066258A1175088A1166258A118A11182610
:1009AA008A1176088A11CC258A1175088A11CC25F4
:1009BA008A118A1162258A1183120313C900490810
:1009CA00CB004A08003A0319D82B013A0319DF2B46
:1009DA00033A0319E72B013A0319ED2B073A0319D6
:1009EA00812CDE2C8A1100280313831285018601CB
:1009FA008701880186098709880903138316C0308D
:100A0A0085007B308600D030870000308800F830BF
:100A1A008900003094000F309F002630980019306A
:100A2A009900D8308100031383123030940090303B
:100A3A00980020308B00A301A801A7018811323049
:100A4A006026AC27B825BD01BC0155309325AA30D4
:100A5A009025E125EA25F125F8250800FF30BC009C
:100A6A00BD00FF3090253C08FF3A031D362D3D0896
:100A7A00FF3A031D362D0800FF30BC00BD006A2571
:100A8A0066253C08FF3A031D442D3D08FF3A031D25
:100A9A00442D080033083204031908003308B9004A
:100AAA003208B800FF30BC00BD00B90A6A256625C5
:100ABA00B80B5B2DB90B5B2D08008C1E622D1A0832
:100ACA0008000C1E662D99000800BC0FBD03BD0A64
:100ADA008613033093003D0803138316141C732DE9
:100AEA000313831293003C0803138316141C7B2DF3
:100AFA0003138312930003138316141C822D03130A
:100B0A008312930103138316141C892D0313831272
:100B1A00130886170800BC0FBD03BD0ABE00861362
:100B2A00023093003D0803138316141C9A2D0313F5
:100B3A00831293003C0803138316141CA22D03137B
:100B4A00831293003E0803138316141CAA2D031361
:100B5A008312930003138316141CB12D03138312FB
:100B6A001308861708008613013093000030031318
:100B7A008316141CBE2D03138312930003138316CA
:100B8A00141CC52D03138312130886170800851534
:100B9A00D2252526023060260800C0000830B7009A
:100BAA00C01B8817C01F8813C00D0817000000005B
:100BBA000813B70BD52D0800051108138511383015
:100BCA00D22525260A306026080085110F30D22545
:100BDA0025260A306026080085110130D2252526EF
:100BEA000A306026080085110330D22525260530F3
:100BFA0060260800F8252830B8001030D225851163
:100C0A00252602306026B80B042E0800F82520306D
:100C1A008515D2251430B800252602306026B80B77
:100C2A00112EF8250800FF2520308515D22514300D
:100C3A00B800252602306026B80B1E2EFF250800B4
:100C4A000515000000000000000000000000000080
:100C5A0000000511080083134C3084000830B800E6
:100C6A0085150008D225252602306026840AB80B8D
:100C7A00362E0800930003138316141C422E031306
:100C8A008312130808001030B600C001A71B4014D5
:100C9A0027080139013AC006C00CA80CA70CB60BEC
:100CAA004A2E0800231C5C2E270823100800482619
:100CBA00231428080800A4001430BA001030BB001E
:100CCA00BB0B652EBA0B632EA40B612E0800B9016B
:100CDA00B80138080F39031D742E0A3066255726C5
:100CEA00EF2176086625750866255726EF217608CE
:100CFA00662575086625B80B6E2EB90B6D2E080091
:100D0A00081105303F260815080083134C3084006B
:100D1A000830B60008112F303F262F303F26000832
:100D2A003F26840AB60B942E00013F2608150800B8
:100D3A00081132303F2608150800081136303F26C0
:100D4A0001303F260815080008113A303F263208BC
:100D5A003F2633083F260815080008113B303F2676
:100D6A0008150800081127303F2600013F26B00762
:100D7A000318B10AB60000013F268822B60BC02E1E
:100D8A000815B227080008110C303F2668303F26A4
:100D9A0000013F26B20000013F26B30000013F26B2
:100DAA0000013F26081508000811BF0006303F263B
:100DBA003F083F2600013F26081508000811343075
:100DCA003F260815080008113C303F2632083F2606
:100DDA0033083F260815080008113D303F2608153C
:100DEA000800081122303F2600013F260815080096
:100DFA00081131303F2608150800081130303F2607
:100E0A0008150800BE00081115303F263E083F2687
:100E1A0008150800081101303F2600013F26081571
:100E2A0008002311A60AA50A01306026F626BE008C
:100E3A00290603190034A50B192FA60B192F231500
:100E4A003E08080008113E303F2608151430A90054
:100E5A00A6016430A50016272319080008112730B7
:100E6A003F2600013F2600013F26F40000013F26ED
:100E7A00F30000013F26F20000013F260815031087
:100E8A00F40DF30DF20D080008113F303F26081546
:100E9A001430A900A6016430A500162723190800FA
:100EAA00081127303F2600013F2600013F26AC00EB
:100EBA0000013F26AB0000013F26AA0000013F26A1
:100ECA0000013F26AF0000013F26AE0000013F2689
:100EDA00AD0000013F2608150310AC0DAB0DAA0D9D
:100EEA000310AF0DAE0DAD0D0800FF30BD00BC0004
:100EFA00A926A6018030A5001D30A90016272319AE
:100F0A000800B7260130602632083006031D912FEB
:100F1A003308310603199B2FB226A601FF30A5001C
:100F2A001D30A900162723190800862F3208B4009D
:100F3A003308B500081136303F2600013F26081550
:100F4A00A6018030A5001430A90016270800F00178
:100F5A00A101F101A201A0010800A00803190800DB
:100F6A004A229025B22F2009031908006A258822EF
:100F7A00B82F8A11AD218A11CC008A11AE218A11AB
:100F8A00CD008A11AF218A11CE008A11B0218A11AF
:100F9A00CF008A11B1218A11D0008A11B2218A1197
:100FAA00D1008A11B3218A11D2008A11B4218A117F
:100FBA00D300831790308400F0308A11A5218A115A
:100FCA001030840070308A11A5218A118313A03051
:100FDA008400E0308A11A5218A1120308400413032
:100FEA008A11A5218A117030840077308A11A521CF
:060FFA0083018A11C82BDF
:04400E00E1FEBCFF14
:00000001FF
