:020000040000FA
:100000008A11BE2F00308A000408840A8207003457
:1000100030343134323433343434353436343734A4
:10002000383439344134423443344434453446342A
:1000300043346F346D346D3461346E346434203441
:100040006D346F34643465340A34003454346934A4
:100050006D3465346F34753474343A34203400347C
:1000600055345334423420344134753474346F344D
:1000700063346F346E346634693467343A340A3426
:1000800000345034683479347334693463346134FF
:100090006C342034623479347434653473343A34D3
:1000A000203400344C346F34673469346334613441
:1000B0006C342034623479347434653473343A34B3
:1000C000203400344634723465346534203462346C
:1000D00079347434653473343A342034003446341B
:1000E00069346C3465342034733469347A3465345B
:1000F0003A34203400346434653461346434623416
:100100006534653466340A340034563465347234E8
:10011000733469346F346E343A34203400345334D9
:10012000743461347434753473343A3420340034A4
:1001300044347234613467346F346E347334003451
:1003E80064008001840A0406031900340406F52910
:1003F800443445345234473441344E345134513402
:1004080083160313E100E0016008610784008A1184
:1004180002208A11003A0319080060086107840065
:100428008A1102208A118A1184258A1101308312C7
:100438000313EC006C088316E007082A83160313DD
:10044800E000E1016108600784008A1102208A1136
:10045800003A031908006108600784008A11022025
:100468008A118A11EA258A11013083120313EC00DC
:100478006C088316E107262A83120313EB006B0826
:100488000F39013E84008A1102208A11E9006908A7
:10049800F5006B08E90004300310E90CFF3E031D6A
:1004A800502A6908EA006A08EB006B080F39013E18
:1004B80084008A110220E9006908F60008008A1100
:1004C8002D278A113A308A1104228A1172088A115A
:1004D80040228A1176088A1184258A1175088A11A2
:1004E80084258A1173088A1140228A1176088A1194
:1004F80084258A1175088A1184258A1174088A113D
:1005080040228A1176088A1184258A1175088A1171
:1005180084258A1130308A1184258A1130308A1155
:1005280084258A110A308A1184258A110800BC2A78
:1005380071083F39903EB52A71083F39103EB52AF7
:1005480071081F39203EAF2A71081F39C03EAF2AF3
:1005580071081F39A03E84008313B72A71081F3918
:10056800D03E840083170008F9007908FA00D82AD9
:10057800831203134208003A03199C2A013A03190B
:100588009C2A033A0319A02A013A0319A02A073A18
:100598000319A42A013A0319A82A033A0319AC2A11
:1005A800013A0319B22AD82A0130F9007908F1076B
:1005B80071081F39031DE42A0130F9007908C207C0
:1005C8000130C0027A080800F800152B7808F700F7
:1005D80070083F39903E102B7808F70070083F39B3
:1005E800103E102B7808F70070081F39203E072BA3
:1005F8007808F70070081F39C03E072B7808F70005
:1006080070081F39A03E840077088313132B7808DD
:10061800F70070081F39D03E8400770883178000E0
:10062800312B831203134108003A0319EA2A013ACD
:100638000319EA2A033A0319F02A013A0319F02A9E
:10064800073A0319F62A013A0319FC2A033A03194F
:10065800022B013A03190B2B312B0130F7007708D5
:10066800F00770081F39031D3D2B0130F70077088C
:10067800C1070130F7007708C007400808008A1151
:100688004D278A114B308A1104228A1183124A0895
:100698008A1140228A1176088A1184258A117508E0
:1006A8008A1184258A11831203134B088A11402268
:1006B8008A1176088A1184258A1175088A11842579
:1006C8008A11831203134C088A1140228A11760872
:1006D8008A1184258A1175088A1184258A11303077
:1006E8008A1184258A1130308A1184258A110A30AA
:1006F8008A1184258A115B308A1104228A11831297
:100708004D088A1140228A1176088A1184258A1197
:1007180075088A1184258A11831203134E088A11D9
:1007280040228A1176088A1184258A1175088A114F
:1007380084258A11831203134F088A1140228A11D3
:1007480076088A1184258A1175088A1184258A11E8
:1007580030308A1184258A1130308A1184258A1113
:100768000A308A1184258A11080029308A11042246
:100778008A1155308A11F5268A1183160313E2006F
:100788006208E30063088A1140228A1176088A11F8
:1007980084258A1175088A1184258A110A308A11DC
:1007A80084258A118A1118278A1183160313E200F7
:1007B8006208E30063088A1140228A117E308A1198
:1007C80004228A1176088A1184258A1175088A11EB
:1007D80084258A110A308A1184258A1105308A11E4
:1007E80010278A1101308A117D268A1107308A1153
:1007F80010278A1101308A117D268A1106308A1144
:1008080010278A1101308A117D268A118A110B2737
:100818008A11FA308A117D268A11FA308A117D26CA
:100828008A118A1106278A11FA308A117D268A11BF
:10083800FA308A117D268A118A11FF268A118316B9
:100848000313E2006208E30063088A1140228A1158
:1008580088308A1104228A1176088A1184258A111F
:1008680075088A1184258A110A308A1184258A110B
:100878008A11432308008316E5018A1149258A1144
:100888008A11A2268A1164308A117D268A118A115A
:10089800B9238A1191308A1122228A118A111D26C0
:1008A8008A1174308A1104228A112E2DDE306606D0
:1008B800031D2E2DE501E50A2E2DAD306606031D1C
:1008C800672C0230782CE5012E2DBE306606031DFC
:1008D800672C0330782CEF306606031D772C113017
:1008E8008A1104228A110430E4006408E5002E2DE0
:1008F8008A11A2268A11152D8A11B9238A11152D5C
:100908008A1118278A11A22C05308A1110278A11FA
:10091800152D06308A1110278A11152D07308A11D6
:1009280010278A11152D8A110B278A11152D8A1166
:1009380006278A11152D8A11FF268A11831603139B
:10094800E4006408E600152D8A1143238A11152D49
:100958008A1163228A11152D8A11A7268A118A11F4
:100968004E268A11152D8A11BA268A11152D8A113B
:10097800BF268A11152D8A11E4268A1168308A113A
:1009880004228A11831253088A1140228A11760898
:100998008A1184258A1175088A1184258A1183127F
:1009A800031352088A1140228A1176088A11842575
:1009B8008A1175088A1184258A110A308A118425BA
:1009C8008A11152D6608003A03197C2C013A03197F
:1009D800802C033A0319842C013A0319882C073A0E
:1009E80003198D2C013A0319922C033A0319972CF9
:1009F800013A03199B2C0F3A03199F2C013A03194A
:100A0800A82C033A0319AC2C013A0319B02C073A65
:100A18000319B72C013A0319BB2C033A0319BF2C4D
:100A2800152D8316031366088A1140228A11760849
:100A38008A1184258A1175088A1184258A118A11D8
:100A480036268A1176088A11EA258A1175088A11CC
:100A5800EA258A118A1180258A1183160313E40076
:100A68006408E6006508003A03195A2C013A03198C
:100A7800612C033A0319692C013A03196F2C073AC0
:100A88000319E62C2E2D8A110028031383128501E1
:100A98008601870188018609870988090313831657
:100AA800C03085007B308600D03087000030880059
:100AB800F8308900003094000F309F0026309800ED
:100AC80019309900D8308100031383123030940014
:100AD8009030980020308B00C301C801C7016430F2
:100AE8007D268811D625DD01DC015530B225FF258C
:100AF80008260F26162608008C1E802D1A080800C6
:100B08000C1E842D99000800DC0FDD03DD0A861316
:100B1800033093005D0803138316141C912D0313EF
:100B2800831293005C0803138316141C992D031376
:100B38008312930003138316141CA02D031383122E
:100B4800930103138316141CA72D03138312130890
:100B580086170800DE00DC0FDD03DD0A861302308D
:100B680093005D0803138316141CB82D0313831216
:100B780093005C0803138316141CC02D03138312FF
:100B880093005E0803138316141CC82D03138312E5
:100B9800930003138316141CCF2D03138312130819
:100BA800861708008613013093000030031383165C
:100BB800141CDC2D03138312930003138316141CD7
:100BC800E32D031383121308861708008515F025F3
:100BD800432602307D260800E0000830D700E01BDD
:100BE8008817E01F8813E00D08170000000008139D
:100BF800D70BF32D08000511081385113830F0259F
:100C080043260A307D26080085110F30F02543263B
:100C18000A307D26080085110130F02543260A3068
:100C28007D26080085110330F025432605307D26F2
:100C3800080016262830D8001030F02585114326E4
:100C480002307D26D80B222E080016262030851566
:100C5800F0251430D800432602307D26D80B2F2EDD
:100C6800162608001D2620308515F0251430D800DA
:100C7800432602307D26D80B3C2E1D26080005157C
:100C8800000000000000000000000000000000005C
:100C9800051108008313613084000830D8008515D9
:100CA8000008F025432602307D26840AD80B542EEE
:100CB8000800930003138316141C602E0313831279
:100CC800130808001030D600E001C71B601447085D
:100CD8000139E006E00CC80CC70CD60B682E0800DA
:100CE800431C792E47084310080066264314480819
:100CF8000800C4001430DA001030DB00DB0B822E51
:100D0800DA0B802EC40B7E2E0800D901D8015808B2
:100D18000F39031D912E0A30842574264022760847
:100D2800842575088425742640227608842575084C
:100D38008425D80B8B2ED90B8A2E08000811053074
:100D48005D26081508008313613084000830D6003A
:100D580008112F305D262F305D2600085D26840A95
:100D6800D60BB12E00015D26081508000811323097
:100D78005D2608150800081136305D2601305D260D
:100D88000815080008113A305D2652085D265308F8
:100D98005D260815080008113B305D260815080077
:100DA800081127305D2600015D26D0070318D10AF7
:100DB800D60000015D26AE25D60BDD2E08150800ED
:100DC80008110C305D2668305D2600015D26D200D2
:100DD80000015D26D30000015D2600015D2608158F
:100DE80008000811DF0006305D265F085D26000157
:100DF8005D2608150800081122305D2600015D26D1
:100E080008150800081131305D260815080008117A
:100E180030305D2608150800DE00081115305D2603
:100E28005E085D2608150800081101305D260001DE
:100E38005D2608150800C60AC50A01307D26FF266A
:100E4800490603190800C50B212FC60B212F43158E
:100E5800080008113E305D2608151430C900C60187
:100E68006430C5001F27081127305D2600015D2664
:100E780000015D26F40000015D26F30000015D26F7
:100E8800F20000015D2608150310F40DF30DF20DB4
:100E9800080008113F305D2608151430C900C60146
:100EA8006430C5001F27081127305D2600015D2624
:100EB80000015D26CC0000015D26CB0000015D2607
:100EC800CA0000015D2600015D26CF0000015D26F5
:100ED800CE0000015D26CD0000015D260815031037
:100EE800CC0DCB0DCA0D0310CF0DCE0DCD0D0800C6
:100EF800FF30DD00DC00C626C6018030C5001D308D
:100F0800C9001F27431D0800D42601307D2652083A
:100F18005006031D932F5308510603199B2FCF2604
:100F2800C601FF30C5001D30C9001F27882F520891
:100F3800D4005308D500081136305D2600015D261F
:100F48000815C6018030C5001430C9001F270800E5
:100F5800F001C101F101C201C0010800C008031974
:100F680008009B22AE25B22F4009031908008825E6
:100F7800E822B82F8A11FC218A11E1008A11FD218B
:100F88008A11E2008A11FE218A11E3008A11FF21E9
:100F98008A11E4008A1100228A11E5008A110122CF
:100FA8008A11E6008A1102228A11E7008A110322B7
:100FB8008A11E800831790308400F0308A11F421F8
:100FC8008A111030840050308A11F4218A11831359
:100FD800A0308400E0308A11F4218A112030840086
:100FE80061308A11F4218A117030840077308A11B7
:080FF800F42183018A113F2C52
:04400E00E1FEBCFF14
:00000001FF
