:020000040000FA
:100000008A11BE2F00308A000408840A8207003457
:1000100030343134323433343434353436343734A4
:10002000383439344134423443344434453446342A
:1000300043346F346D346D3461346E346434203441
:100040006D346F34643465340A34003454346934A4
:100050006D3465346F34753474343A34203400347C
:1000600055345334423420344134753474346F344D
:1000700063346F346E346634693467343A340A3426
:1000800000345034683479347334693463346134FF
:100090006C342034623479347434653473343A34D3
:1000A000203400344C346F34673469346334613441
:1000B0006C342034623479347434653473343A34B3
:1000C000203400344634723465346534203462346C
:1000D00079347434653473343A342034003446341B
:1000E00069346C3465342034733469347A3465345B
:1000F0003A34203400346434653461346434623416
:100100006534653466340A340034563465347234E8
:10011000733469346F346E343A34203400345334D9
:10012000743461347434753473343A3420340034A4
:1001300044347234613467346F346E347334003451
:1003480064008001840A0406031900340406A52900
:10035800443445345234473441344E3451345134A2
:1003680083160313E100E0016008610784008A1125
:1003780002208A11003A0319080060086107840006
:100388008A1102208A118A1170258A11013083127C
:100398000313EC006C088316E007B82983160313CF
:1003A800E000E1016108600784008A1102208A11D7
:1003B800003A031908006108600784008A110220C6
:1003C8008A118A11D6258A11013083120313EC0091
:1003D8006C088316E107D62983120313EB006B0818
:1003E8000F39013E84008A1102208A11E900690848
:1003F800F5006B08E90004300310E90CFF3E031D0B
:10040800002A6908EA006A08EB006B080F39013E08
:1004180084008A110220E9006908F60008008A11A0
:100428002D278A113A308A11B4218A1172088A114B
:10043800F0218A1176088A1170258A1175088A11A7
:1004480070258A1173088A11F0218A1176088A1199
:1004580070258A1175088A1170258A1174088A1105
:10046800F0218A1176088A1170258A1175088A1177
:1004780070258A1130308A1170258A1130308A111E
:1004880070258A110A308A1170258A1108006C2A91
:1004980071083F39903E652A71083F39103E652A38
:1004A80071081F39203E5F2A71081F39C03E5F2A34
:1004B80071081F39A03E84008313672A71081F3909
:1004C800D03E840083170008F9007908FA00882ACA
:1004D800831203134208003A03194C2A013A0319FC
:1004E8004C2A033A0319502A013A0319502A073AA9
:1004F8000319542A013A0319582A033A03195C2AA2
:10050800013A0319622A882A0130F9007908F107AB
:1005180071081F39031D942A0130F9007908C207B0
:100528000130C0027A080800F800C52A7808F700E8
:1005380070083F39903EC02A7808F70070083F39A4
:10054800103EC02A7808F70070081F39203EB72AE5
:100558007808F70070081F39C03EB72A7808F700F6
:1005680070081F39A03E840077088313C32A7808CF
:10057800F70070081F39D03E840077088317800081
:10058800E12A831203134108003A03199A2A013A0F
:1005980003199A2A033A0319A02A013A0319A02A2F
:1005A800073A0319A62A013A0319AC2A033A031990
:1005B800B22A013A0319BB2AE12A0130F700770869
:1005C800F00770081F39031DED2A0130F70077087E
:1005D800C1070130F7007708C007400808008A11F2
:1005E8004D278A114B308A11B4218A1183124A0887
:1005F8008A11F0218A1176088A1170258A117508E6
:100608008A1170258A11831203134B088A11F0216D
:100618008A1176088A1170258A1175088A11702541
:100628008A11831203134C088A11F0218A11760863
:100638008A1170258A1175088A1170258A1130303F
:100648008A1170258A1130308A1170258A110A3072
:100658008A1170258A115B308A11B4218A1183129C
:100668004D088A11F0218A1176088A1170258A119D
:1006780075088A1170258A11831203134E088A118E
:10068800F0218A1176088A1170258A1175088A1155
:1006980070258A11831203134F088A11F0218A11D9
:1006A80076088A1170258A1175088A1170258A11B1
:1006B80030308A1170258A1130308A1170258A11DC
:1006C8000A308A1170258A11080029308A11B4214C
:1006D8008A1155308A11E2268A1183160313E20023
:1006E8006208E30063088A11F0218A1176088A11EA
:1006F80070258A1175088A1170258A110A308A11A5
:1007080070258A118A1118278A1183160313E200AB
:100718006208E30063088A11F0218A117E308A1189
:10072800B4218A1176088A1170258A1175088A11F0
:1007380070258A110A308A1170258A1105308A11AC
:1007480010278A1101308A1169268A1107308A1107
:1007580010278A1101308A1169268A1106308A11F8
:1007680010278A1101308A1169268A118A110B27EC
:100778008A11FA308A1169268A11FA308A11692693
:100788008A118A1106278A11FA308A1169268A1174
:10079800FA308A1169268A118A11FF268A1183166E
:1007A8000313E2006208E30063088A11F0218A114A
:1007B80088308A11B4218A1176088A1170258A1125
:1007C80075088A1170258A110A308A1170258A11D4
:1007D8008A11F32208008316E5018A111C258A1163
:1007E8008A118E268A1164308A1169268A118A1123
:1007F80069238A1191308A11D2218A118A11092616
:100808008A1174308A11B4218A11012DDE306606EE
:10081800031D012DE501E50A012DAD306606031D16
:10082800172C0230282CE501012DBE306606031D69
:10083800172C0330282CEF306606031D272C1130A7
:100848008A11B4218A110430E4006408E500012DFE
:100858008A118E268A11E82C8A1169238A11E82CBC
:100868008A1118278A11522C05308A1110278A11EB
:10087800E82C06308A1110278A11E82C07308A11D3
:1008880010278A11E82C8A110B278A11E82C8A1163
:1008980006278A11E82C8A11FF268A11831603136A
:1008A800E4006408E600E82C8A11F3228A11E82C97
:1008B8008A1113228A11E82C8A1193268A118A1127
:1008C8003A268A11E82C8A11A6268A11E82C8A1160
:1008D800AB268A11E82C8A11D1268A1168308A1130
:1008E800B4218A11831253088A11F0218A117608DB
:1008F8008A1170258A1175088A1170258A11831248
:10090800031352088A11F0218A1176088A1170257A
:100918008A1175088A1170258A110A308A11702582
:100928008A11E82C8A117C278A11E82C8A11EC2676
:100938008A11E82C8A1150258A11E82C8A115E2523
:100948008A11E82C8A1175268A11E82C6608003A63
:1009580003192C2C013A0319302C033A0319342CAF
:10096800013A0319382C073A03193D2C013A0319A7
:10097800422C033A0319472C013A03194B2C0F3A1E
:1009880003194F2C013A0319582C033A03195C2C0C
:10099800013A0319602C073A0319672C013A031925
:1009A8006B2C033A03196F2C013A0319962C1F3A42
:1009B80003199A2C303A03199E2C013A0319A22CD8
:1009C800033A0319A62CE82C8316031366088A1128
:1009D800F0218A1176088A1170258A1175088A1102
:1009E80070258A118A1122268A1176088A11D6253D
:1009F8008A1175088A11D6258A118A116C258A11DF
:100A080083160313E4006408E6006508003A031936
:100A18000A2C013A0319112C033A0319192C013A2B
:100A280003191F2C073A0319AA2C012D8A11002833
:100A380003138312850186018701880186098709C6
:100A4800880903138316C03085007B308600D030B8
:100A5800870000308800F8308900003094000F309B
:100A68009F002630980019309900D8308100031370
:100A78008312303094009030980020308B00C301EE
:100A8800C801C701643069268811C2255025EB25A5
:100A9800F425FB2502260800FF30DC00DD00FF30CE
:100AA8009A255C08FF3A031D532D5D08FF3A031D84
:100AB800532D0800FF30DC00DD00742570255C082C
:100AC800FF3A031D612D5D08FF3A031D612D0800E3
:100AD8008C1E6C2D1A0808000C1E702D9900080039
:100AE800DC0FDD03DD0A8613033093005D08031372
:100AF8008316141C7D2D0313831293005C080313C3
:100B08008316141C852D0313831293000313831675
:100B1800141C8C2D03138312930103138316141CC6
:100B2800932D03138312130886170800DE00DC0FC9
:100B3800DD03DD0A8613023093005D080313831674
:100B4800141CA42D0313831293005C08031383164B
:100B5800141CAC2D0313831293005E080313831631
:100B6800141CB42D03138312930003138316141C4F
:100B7800BB2D031383121308861708008613013050
:100B88009300003003138316141CC82D031383121B
:100B9800930003138316141CCF2D03138312130819
:100BA800861708008515DC252F26023069260800DF
:100BB800E0000830D700E01B8817E01F8813E00D1D
:100BC8000817000000000813D70BDF2D08000511D7
:100BD800081385113830DC252F260A3069260800CD
:100BE80085110F30DC252F260A306926080085116B
:100BF8000130DC252F260A306926080085110330CC
:100C0800DC252F2605306926080002262830D80062
:100C18001030DC2585112F2602306926D80B0E2EC0
:100C28000800022620308515DC251430D8002F2630
:100C380002306926D80B1B2E022608000926203010
:100C48008515DC251430D8002F2602306926D80BEC
:100C5800282E0926080005150000000000000000E5
:100C68000000000000000000051108008313613037
:100C780084000830D80085150008DC252F260230AE
:100C88006926840AD80B402E0800930003138316A4
:100C9800141C4C2E03138312130808001030D600BE
:100CA800E001C71B601447080139E006E00CC80CD6
:100CB800C70CD60B542E0800431C652E470843105A
:100CC80008005226431448080800C4001430DA000B
:100CD8001030DB00DB0B6E2EDA0B6C2EC40B6A2E89
:100CE8000800D901D80158080F39031D7D2E0A3094
:100CF80070256026F0217608702575087025602615
:100D0800F0217608702575087025D80B772ED90B39
:100D1800762E0800081105304926081508008313A7
:100D2800613084000830D60008112F3049262F3052
:100D3800492600084926840AD60B9D2E000149261B
:100D4800081508000811323049260815080008114E
:100D580036304926013049260815080008113A306E
:100D6800492652084926530849260815080008113B
:100D78003B3049260815080008112730492600018C
:100D88004926D0070318D10AD6000001492698221F
:100D9800D60BC92E0815B227080008110C304926B1
:100DA8006830492600014926D20000014926D300AF
:100DB8000001492600014926081508000811DF002E
:100DC800063049265F08492600014926081508000B
:100DD8000811343049260815080008113C30492606
:100DE80052084926530849260815080008113D30BD
:100DF800492608150800081122304926000149260D
:100E0800081508000811313049260815080008118E
:100E18003030492608150800DE000811153049262B
:100E28005E08492608150800081101304926000106
:100E3800492608150800C60AC50A01306926FF2692
:100E4800490603190800C50B212FC60B212F43158E
:100E5800080008113E30492608151430C900C6019B
:100E68006430C5001F27081127304926000149268C
:100E780000014926F40000014926F3000001492633
:100E8800F2000001492608150310F40DF30DF20DC8
:100E9800080008113F30492608151430C900C6015A
:100EA8006430C5001F27081127304926000149264C
:100EB80000014926CC0000014926CB000001492643
:100EC800CA000001492600014926CF000001492631
:100ED800CE0000014926CD0000014926081503105F
:100EE800CC0DCB0DCA0D0310CF0DCE0DCD0D0800C6
:100EF800FF30DD00DC00B226C6018030C5001D30A1
:100F0800C9001F27431D0800C02601306926520862
:100F18005006031D932F5308510603199B2FBB2618
:100F2800C601FF30C5001D30C9001F27882F520891
:100F3800D4005308D5000811363049260001492647
:100F48000815C6018030C5001430C9001F270800E5
:100F5800F001C101F101C201C0010800C008031974
:100F680008004B229A25B22F40090319080074255E
:100F78009822B82F8A11AC218A11E1008A11AD217B
:100F88008A11E2008A11AE218A11E3008A11AF2189
:100F98008A11E4008A11B0218A11E5008A11B12171
:100FA8008A11E6008A11B2218A11E7008A11B32159
:100FB8008A11E800831790308400F0308A11A42148
:100FC8008A111030840050308A11A4218A118313A9
:100FD800A0308400E0308A11A4218A1120308400D6
:100FE80061308A11A4218A117030840077308A1107
:080FF800A42183018A11EF2BF3
:04400E00E1FEBCFF14
:00000001FF
