:020000040000FA
:040000008A11052834
:040004000034003490
:02000800912A3B
:06000A00831203138501BF
:1000100086018701880108168509860987098316E4
:100020000313C23085007B308600D030870000305B
:100030008800F8308900003094000F309F0026308F
:10004000980019309900D8308100831203133030A2
:1000500094009030980020308B00D401CD01CE0167
:100060006430D10002231221A601A7015530A0005F
:10007000EE2035213F2147214F213E28BA20BF20C5
:100080002008A100F13A03196E282108F23A031959
:1000900084282108F33A031986282108F43A031921
:1000A00088282108F53A03198A282108F63A031905
:1000B0008C282108F73A03198E282108F83A0319E9
:1000C00090282108F93A031992282108FA3A0319CD
:1000D00094282108FB3A031997283E28BA21FF30BB
:1000E000A600A700B903390F7628B803C420BF20A3
:1000F00026083806031D762827083906031D7628AA
:10010000B90FB803B80A3E2853223E284F213E2893
:1001100057213E2864213E2872213E2847213E284F
:100120008B213E28AB203E28D3019B213E289920DD
:100130003E28A701A601A709A609A001A009081643
:10014000EB2008122708FF3A031D9F282608FF3AD4
:10015000031D9F280800A701A601A709A609C4201E
:10016000BF202708FF3A031DAF282608FF3A031DCA
:10017000AF2808008C1EBA281A08A00008000C1E20
:10018000BF28200899000800A70FA603A60A861317
:1001900003309300260883160313141CCD28831202
:1001A00003139300270883160313141CD528831206
:1001B0000313930083160313141CDC288312031308
:1001C000930183160313141CE328831203131308EB
:1001D000A00086170800A70FA603A60A8613023000
:1001E0009300260883160313141CF42883120313A8
:1001F0009300270883160313141CFC28831203138F
:100200009300200883160313141C0429831203137C
:10021000930083160313141C0B2983120313130872
:1002200086170800861301309300003083160313ED
:10023000141C182983120313930083160313141C30
:100240001F2983120313130886170800A300083020
:10025000AC00A31B8817A31F8813A30D0817000069
:1002600000000813AC0B292908000511081385119B
:100270003830262180210A30D10002230800851160
:100280000F30262180210A30D10002230800851179
:100290000130262180210A30D10002230800851177
:1002A0000330262180210530D100022308004F2190
:1002B0002830AB0010302621851180210230D1007A
:1002C0000223AB0B5C2908004F2120308515262125
:1002D0001430AB0080210230D1000223AB0B6A291D
:1002E0004F21080057212030851526211430AB00FE
:1002F00080210230D1000223AB0B7829572108005E
:1003000005150000000000000000000000000000D3
:100310000000051108008313B03084000830AB00E2
:1003200085150008262180210230D1000223840A8D
:10033000AB0B91290800D201851508308A000020F6
:10034000A10000308A00210803190800262180211D
:100350000230D1000223D20A9D29D20108308A003E
:100360000020A00000308A00A00803190800BF2068
:10037000D20AAE29FF30A600A700D414D721D4108A
:10038000EC21A70FA603A60A2608B8002708B90083
:10039000A6010330A7008313B03084000830AA0000
:1003A000C42020088000840AAA0BD02908008030CD
:1003B000AB0024222008553A031DE129AB0BD929B3
:1003C0000800AB0BE429492A1E222008553A031DD8
:1003D000492AAB0BD929492A2422201C492AEB207F
:1003E0002422EB202422EB202422EB202008AB0047
:1003F0002422EB20AB0BF8292422EB202422EB2033
:10040000D7212422EB202422EB202422200F102AA3
:10041000EB202422EB202422EB202422EB200800D6
:10042000EB202422EB202008AB002422EB20AB0B96
:10043000152A2422EB202422EB20012A0830AA00CE
:100440000608023AA100302A0830AA000608A100D6
:10045000A501A00CA01306082106A200A21C2B2AAD
:100460004D22A50A2508163C0318392AD41C492A0E
:10047000242A06082106A200A218302A2508083CD2
:100480000318362A0F30A502A51BA017AA0B262A8F
:1004900000348312031705144C2A000000000000EA
:1004A000000000000800A101BA01FF30A600A7006B
:1004B0005530A0007F30AA00810100000B118B177E
:1004C0003A1D602A3A19622AAA0B602A1630AA003D
:1004D000C4203A1D692A3A196B2AAA0B682A8B1381
:1004E000C6227F30AA008101A10100000B118B17E9
:1004F0003A1D782A3A197A2AAA0B782AC4203A1D7A
:100500007F2A3A19812A38082606A300A30AA30BDA
:100510007E2A39082706A300A30AA30B7E2A8B1381
:100520000800A4000B113B3081002118A62AA11855
:10053000AD2A2119B52AA119B92A04308606200846
:10054000A200BA010130A1002408090004302218D9
:1005500086060230A100240809000430860622180D
:10056000BB2A0430A100240809000830A100240897
:100570000900043086060130A100A20CBA0ABA1D97
:10058000C42ABA012008A200240809002030AA00C9
:100590003630AB005F30A900A90BCC2AAB0BCA2ABE
:1005A000AA0BC82A08002008930083160313141C02
:1005B000D72A831203131308A00008008A15200805
:1005C0000F394520BC00200E0F394520BB008A1191
:1005D00008001030AD00A301CE1B23144E080139D2
:1005E000A306A30CCD0CCE0CAD0BEB2A0800541CBB
:1005F000FD2A4E08A00054100800E92254144D08AA
:10060000A00008001430A9001030A800A80B062B89
:10061000A90B042BD10B022B0800AA01AB012B085C
:100620000F39031D162B0A30A000BF20F722DE224F
:100630003B08A000BF203C08A000BF20F722DE221C
:100640003B08A000BF203C08A000BF20AB0B0F2B35
:10065000AA0B0E2B0800D4115412C808031D332B0B
:10066000D415541608004708023C031C3A2BD41535
:1006700054160800460838060319432B380846026A
:100680000318D4150800B9080319D4150800081177
:100690000530A000D322081508008313B030840071
:1006A0000830AD0008112F30A000D3222F30A00059
:1006B000D3220008A000D322840AAD0B592BA0013D
:1006C000D3220815080008113230A000D3220815E3
:1006D000080008113630A000D3220130A000D32238
:1006E0000815080008113A30A000D3224008A000E5
:1006F000D3223F08A000D3220815080008113B3080
:10070000A000D3220815080008112730A000D3222A
:10071000A001D3222008C2070318C10AAD00A0011E
:10072000D322EB20AD0B8F2B0815080008110C30DD
:10073000A000D3226830A000D322A001D322200839
:10074000C000A001D3222008BF00A001D322A00135
:10075000D3220815080008112008A4000630A000C4
:10076000D3222408A000D322A001D3220815080018
:1007700008113430A000D3220815080008113C30BD
:10078000A000D3224008A000D3223F08A000D3221B
:100790000815080008113D30A000D32208150800F4
:1007A00008112230A000D322A001D322081508008E
:1007B00008113130A000D32208150800081130308C
:1007C000A000D3220815080008111530A000D3227C
:1007D0000530A000D3220815080008111530A0002C
:1007E000D3220630A000D3220815080008111530C6
:1007F000A000D3220730A000D3220815080008115A
:100800000130A000D322A001D32208150800D00A8D
:10081000CF0A0130D1000223D0234C08A0060319CF
:100820000800CF0B092CD00B092C54150800081117
:100830003E30A000D32208151430CC00D001103077
:10084000CF00072408112730A000D322A001D32213
:10085000A001D3222008C300A001D3222008C40095
:10086000A001D3222008C500A001D322081503103F
:10087000C30DC40DC50D080008113E30A000D322E1
:1008800008151430CC00D0011030CF000724081117
:100890002730A000D322A001D322A001D322200818
:1008A000C900A001D3222008CA00A001D322200839
:1008B000CB00A001D322A001D3222008C600A001B2
:1008C000D3222008C700A001D3222008C800A0011D
:1008D000D32208150310C90DCA0DCB0D0310C60D88
:1008E000C70DC80D0800CE01CD015410B823B83093
:1008F000CF000B30D0001430CC0007240430AF0000
:10090000BD01BE018030BF00C001BE230B30D0004E
:10091000B830CF001E30CC00072408112D30A000C5
:10092000D322A001D3222008AE00F722D322BE0F8B
:10093000BD03BD0A3D083F06031DA22C3E0840062C
:100940000319A42CAE0B952C08150B30D000B83031
:10095000CF001E30CC0007243D083F06031DB42CF9
:100960003E0840060319BD2CCA230B30D000B83016
:10097000CF001E30CC0007248D2CCA230B30D000B2
:10098000B830CF001430CC000724AF0B802C692383
:100990000B30D000B830CF001430CC000724080052
:1009A0004D231030CF00D0011430CC000724B823E1
:1009B000B830CF000B30D0001430CC000724BD017C
:1009C000BE013808BF003908C000BE230B30D0007C
:1009D000B830CF001E30CC00072481253E08A70088
:1009E0003D08A600A703031CA603852508112D308A
:1009F000A000D322A001D3222008AE008E25D3224E
:100A0000BE0FBD03BD0A3D083F06031D0B2D3E086A
:100A1000400603190D2DAE0BFE2C08150B30D0002F
:100A2000B830CF001E30CC0007243D083F06031D20
:100A30001D2D3E0840060319262DCA230B30D00079
:100A4000B830CF001E30CC000724ED2CCA230B3069
:100A5000D000B830CF001430CC00072469230B300D
:100A6000D000B830CF001430CC0007240800FF308D
:100A7000A600A7007223D0018030CF001D30CC002B
:100A80000724541D692D84230130D100022340081E
:100A90004206031D4F2D3F0841060319572D7E23A3
:100AA000D001FF30CF001D30CC000724432D40087B
:100AB000B9003F08B80008113630A000D322A001C9
:100AC000D3220815D0018030CF001430CC00072489
:100AD00008002008A200AB010430D300AD21203073
:100AE000A000BF204C08A000DE223B08A000BF20D1
:100AF0003C08A000BF200A30A000BF202208A000B0
:100B000008008313A03084000800AF01C4208B25A7
:100B1000AF0B862D080020088000902D0008A00053
:100B2000840A04087F39703A031D0800841B9E2D37
:100B3000831B9B2D492A903084000800831BA42D21
:100B400083171030840008008313A030840008004D
:1010000053088207092817281E2825282C28372846
:101010003E28520882075434413450344534203439
:10102000523445344134443459342E340034520857
:1010300082074C344F344134443400345208820720
:101040005334413456344534003452088207533403
:1010500045344E3444340034520882075434493401
:101060004D3445344F34553454343A3400345208F6
:1010700082074E34453458345434003452088207C1
:101080004234413443344B340034820730343134F9
:101090003234333434343534363437343834393404
:0C10A00041344234433444344534463477
:10120000071000004C2120180714201C07105C2137
:10121000A0180714A01C07105C2120190714201D1A
:1012200007105C21A0190714A01D07105C21201ACB
:101230000714201E07105C21A01A0714A01E071017
:101240005C21201B0714201F07105C21A01B071422
:10125000A01F07105C2107144C210800A00187186B
:101260002F2953214C21871820144C218718A014B2
:101270004C21871820154C218718A0154C21871860
:1012800020164C218718A0164C21871820174C21B6
:101290008718A017532108005230AA000000000050
:1012A000AA0B4E2908001D30AA0000000000000013
:1012B0000000AA0B552908006630A4000000A40B0A
:1012C0005E290800810100000B118B1708008B13A9
:0212D000080014
:02400E00233F4E
:02401000BC3FB3
:00000001FF
